:020000020000FC
:100000000C9406000C94F4000C9402014FEF47B9D5
:1000100042E0409300024AEF5527FF27E091020299
:1000200051934083FF27E09104025193408344277A
:10003000409306024093070245E04093690043E085
:100040004DBB78940FEF0DBF01E20EBF0FEF00BB69
:1000500001B9002701BB02B908E3E3D0F2D00BD10C
:1000600008E3DFD0EED0FED008E3DBD0EAD008E32F
:10007000D8D0E7D008E0D5D0E4D001E0D2D0E1D0AC
:1000800006E0CFD0DED00EE0CCD0DBD058D139D1D5
:1000900005D078940C9447000C94AA004091070274
:1000A0004030D1F3409100024F70403031F0413088
:1000B00031F1423099F0433099F160910702FF2706
:1000C000E091020241915081561B6FEF4040FF27A3
:1000D000E0910202419350830C94A00060910702CA
:1000E000FF27E091020241915081560F6627461F7B
:1000F000FF27E0910202419350830C94A00060918D
:100100000702FF27E091040241915081560F6627B4
:10011000461FFF27E0910402419350830C94A000F6
:1001200060910702FF27E091040241915081561B24
:100130004040FF27E0910402419350830C94A000BB
:10014000503019F4403009F406D041301CF0543FCF
:100150000CF001D01895F89401E063D072D003E45C
:1001600067D06FD002E564D06CD001E461D069D073
:1001700003E55ED066D008E45BD063D00C94C00089
:100180000C94C00040910002509100025F7050300A
:1001900019F04A950C94CD004D5F409300020895EC
:1001A00040910002509100025F70533019F0439566
:1001B0000C94DB00435040930002089540910002EC
:1001C00050910002507F503209F0405F409300028E
:1001D00018954091000250910002507F503009F074
:1001E000405140930002189503E422D02AD0409158
:1001F00007024430A9F04395409307024FEF48B9F6
:100200007894189503E414D01CD040910702403034
:1002100039F04A95409307024FEF48B97894189502
:10022000189501BB1FD0169A1DD016981BD00895A3
:1002300001BB179A17D0169A15D0169813D0179895
:1002400008950F93002700BB01BB159A0BD0169A97
:1002500009D00FB1169807FDF9CF15980FEF00BB25
:100260000F9108958F939F939FE08CE90197F1F789
:100270009F918F910895F6DFF5DFF4DFF3DFF2DF72
:10028000089540EF40930A013FEE11271430B1F179
:1002900030930B014FEF4A95F1F7409109014F70F0
:1002A0004F3059F021E00027043039F0542F522309
:1002B00049F00395220F0C945401330F3395139595
:1002C0000C944601133049F0033059F0402F440F8D
:1002D000400F410F4F5C0C94800141E4400F0C949F
:1002E0008001103029F0113031F043E20C9480018C
:1002F0004AE20C94800140E30C94800144E20895AA
:100300000895BFDF509101024517C1F040930102EB
:10031000423341F0483349F0443351F0463359F009
:100320000C949E014BDF0BD0189553DF08D0189525
:1003300029DF05D0189534DF02D01895189501E013
:1003400070DF7FDF00E574DF7CDF0FE471DF79DFD2
:1003500003E56EDF76DF00E26BDF73DF00E268DF6C
:1003600070DF00E265DF6DDF04E462DF6ADF09E46D
:100370005FDF67DF02E55CDF64DF00E259DF61DF3A
:1003800000E256DF5EDF00E253DF5BDF03E550DFB4
:1003900058DF00E54DDF55DF04E44ADF52DF00ECB3
:1003A00040DF4FDF00E244DF4CDF00E241DF49DFA6
:1003B00000E23EDF46DF00E23BDF43DF00E238DF02
:1003C00040DF00E235DF3DDF00E232DF3ADF40911F
:1003D00000024F70403069F0413091F0423011F02E
:1003E0004330A9F005E424DF2CDF00E221DF29DF20
:1003F000189507E51DDF25DF00E21ADF22DF1895DB
:100400000EE416DF1EDF00E213DF1BDF189503E5A5
:0C0410000FDF17DF00E20CDF14DF18958F
:00000001FF
