:020000020000FC
:100000000C9402004FEF47B942E0409300020FEF1B
:100010000DBF01E20EBF0FEF00BB01B9002701BB0E
:1000200002B908E380D08FD0A8D008E37CD08BD071
:100030009BD008E378D087D008E375D084D008E05F
:1000400072D081D001E06FD07ED006E06CD07BD042
:100050000EE069D078D000E56DD075D00FE46AD09D
:1000600072D003E567D06FD000E264D06CD000E2BC
:1000700061D069D000E25ED066D004E45BD063D08A
:1000800009E458D060D002E555D05DD000E252D0EE
:100090005AD000E24FD057D000E24CD054D003E504
:1000A00049D051D000E546D04ED004E443D04BD0E7
:1000B00000EC39D048D0A7D04091000248B90C9448
:1000C0005B0040910002509100025F70503019F0C7
:1000D0004A950C946C004D5F409300020895409146
:1000E0000002509100025F70533019F043950C9458
:1000F0007A004350409300020895409100025091CD
:100100000002507F503209F0405F40930002189582
:100110004091000250910002507F503009F0405150
:1001200040930002189501BB1FD0169A1DD0169857
:100130001BD0089501BB179A17D0169A15D01698A0
:1001400013D0179808950F93002700BB01BB159A91
:100150000BD0169A09D00FB1169807FDF9CF159854
:100160000FEF00BB0F9108958F939F939FE08CE951
:100170000197F1F79F918F910895F6DFF5DFF4DF96
:10018000F3DFF2DF089540EF40930A013FEE1127BD
:100190001430B1F130930B014FEF4A95F1F74091D4
:1001A00009014F704F3059F021E00027043039F039
:1001B000542F522349F00395220F0C94D600330F8D
:1001C000339513950C94C800133049F0033059F05F
:1001D000402F440F400F410F4F5C0C94020141E44B
:1001E000400F0C940201103029F0113031F043E23D
:1001F0000C9402014AE20C94020140E30C940201C7
:1002000044E208950895BFDF509101024517A1F01F
:1002100040930102423341F0483341F0443341F00E
:10022000463341F00C941C0168DF189571DF189576
:0A02300048DF189554DF1895189563
:00000001FF
