:020000020000FC
:0C0000000C9433000C9403020C941402C6
:10005C000C9482000C9432001895F8944FEF47B929
:10006C0041E050E9F2E0E5E041935083F2E0E3E057
:10007C004193508344274093090240930C02F2E0D1
:10008C00EAE04193408350E5F2E0E7E0419350838E
:10009C0041E0409300024093100240E14093010282
:1000AC004AE04093690043E04DBB0FEF0DBF01E206
:1000BC000EBF0FEF00BB01B9002701BB02B908E36B
:1000CC00C0D1CFD1E8D108E3BCD1CBD1DBD108E38F
:1000DC00B8D1C7D108E3B5D1C4D108E0B2D1C1D1F0
:1000EC0001E0AFD1BED106E0ACD1BBD10EE0A9D1BD
:1000FC00B8D117D278941BC0F89413D280910F0208
:10010C00839584368F9371F441E0409310024091B3
:10011C000C02439540930C028F9117D044274093C7
:10012C000F0203C08F9180930F0278941895442787
:10013C0040930F0240E044BD43E045BD41E0409395
:10014C006E007894FFCF0C94460140910002403031
:10015C00D1F360910002F2E0EAE041915081560F38
:10016C006627461FF2E0EAE041935083409101027A
:10017C00407F403089F0403211F00C94E700F2E0FF
:10018C00E7E04191508160910002560FF2E0E7E008
:10019C00419350830C94DF00F2E0E7E041915081F1
:1001AC0060910002561BF2E0E7E0419350830C94FF
:1001BC00DF00543620F4503010F00C9437010C94BE
:1001CC004701409101024F70403031F0413009F14C
:1001DC00423081F0433061F1F2E0E3E04191508133
:1001EC0060910002561B4040F2E0E3E041935083E3
:1001FC000C942C01F2E0E3E04191508160910002FB
:10020C00560F6627461FF2E0E3E0419350830C94AF
:10021C002C01F2E0E5E04191508160910002560F13
:10022C006627461FF2E0E5E0419350830C942C01C5
:10023C00F2E0E5E04191508160910002561B404094
:10024C00F2E0E5E0419350830C942C01503011F412
:10025C004030B9F04230A8F458B9403011F0543F56
:10026C0080F440910902453048B929F043954093F8
:10027C0009020C94460144274093090270D1189549
:10028C001895F89401E0DDD0ECD004E4E1D0E9D08D
:10029C0009E4DED0E6D003E5DBD0E3D004E5D8D02A
:1002AC00E0D001E4D5D0DDD00EE4D2D0DAD003E436
:1002BC00CFD0D7D005E4CCD0D4D00AE3C9D0D1D09C
:1002CC00F2E0EAE041915081882777279927403066
:1002DC0041F4543630F45A3048F4503059F40C94FC
:1002EC0084015456404093950C946D015A5083955B
:1002FC000C946D015A9573950C946D01905D805D15
:10030C00705D092FA5D0ADD0082FA2D0AAD000ECDB
:10031C0098D0A7D004E49CD0A4D005E599D0A1D066
:10032C0002E596D09ED001E493D09BD004E590D00A
:10033C0098D009E48DD095D00FE48AD092D00EE4F9
:10034C0087D08FD00AE384D08CD040910C028827C0
:10035C0077279927443630F44A3040F4403051F432
:10036C000C94C401445693950C94B0014A50839557
:10037C000C94B0014A9573950C94B001905D805D1E
:10038C00705D092F65D06DD0082F62D06AD00C94A7
:10039C00CF010C94CF0140910102509101025F708A
:1003AC00503019F04A950C94DC014D5F40930102DA
:1003BC00089540910102509101025F70533019F081
:1003CC0043950C94EA0143504093010208954091E7
:1003DC00010250910102507F503209F0405F40936E
:1003EC00010218954091010250910102507F50304A
:1003FC0009F04051409301021895F8944091100275
:10040C004030E9F0409100024430C9F043954093EC
:10041C00000244274093100278941895F894409168
:10042C001002403061F040910002403041F04A959A
:10043C0040930002442740931002789418957894C6
:10044C00189501BB1FD0169A1DD016981BD0089575
:10045C0001BB179A17D0169A15D0169813D0179867
:10046C0008950F93002700BB01BB159A0BD0169A69
:10047C0009D00FB1169807FDF9CF15980FEF00BBF7
:10048C000F9108958F939F939FE08CE90197F1F75B
:10049C009F918F910895F6DFF5DFF4DFF3DFF2DF44
:1004AC00089540EF40930A013FEE11271430B1F14B
:1004BC0030930B014FEF4A95F1F7409109014F70C2
:1004CC004F3059F021E00027043039F0542F5223DB
:1004DC0049F00395220F0C946A02330F3395139550
:1004EC000C945C02133049F0033059F0402F440F48
:1004FC00400F410F4F5C0C94960241E4400F0C945A
:10050C009602103029F0113031F043E20C9496022F
:10051C004AE20C94960240E30C94960244E208954D
:10052C000895BFDF509102024517C1F040930202BB
:10053C00423341F0483349F0443351F0463359F0DB
:10054C000C94B40244DF0BD018954CDF08D01895EE
:10055C0022DF05D018952DDF02D01895189501E0F3
:10056C0070DF7FDF00E274DF7CDF00E271DF79DFB8
:10057C0000E26EDF76DF00E56BDF73DF0FE468DF30
:10058C0070DF03E565DF6DDF00E262DF6ADF00E24A
:10059C005FDF67DF00E25CDF64DF04E459DF61DF0B
:1005AC0009E456DF5EDF02E553DF5BDF00E250DF7C
:1005BC0058DF03E54DDF55DF00E54ADF52DF04E489
:1005CC0047DF4FDF00EC3DDF4CDFF2E0E3E0419131
:1005DC005081882777279927403041F4543630F4DE
:1005EC005A3048F4503059F40C9409035456404096
:1005FC0093950C94F2025A5083950C94F2025A95EE
:10060C0073950C94F202905D805D705D092F20DF74
:10061C0028DF082F1DDF25DF00E21ADF22DFF2E0E2
:10062C00E5E041915081882777279927403041F4A4
:10063C00543630F45A3048F4503059F40C94330397
:10064C005456404093950C941C035A5083950C942B
:10065C001C035A9573950C941C03905D805D705D22
:10066C00092FF6DEFEDE082FF3DEFBDE00E2F0DE05
:10067C00F8DEF2E0E7E0419150818827772799274F
:10068C00403041F4543630F45A3048F4503059F478
:10069C000C945D035456404093950C9446035A5069
:1006AC0083950C9446035A9573950C944603905D70
:1006BC00805D705D092FCCDED4DE082FC9DED1DE63
:1006CC0000E2C6DECEDE00E2C3DECBDE40910102EC
:1006DC00407F4030C1F1403271F1409101024F70C6
:1006EC00403089F04130B9F0423029F04330D9F034
:1006FC0048B90C94B20305E4ABDEB3DE00E2A8DE2D
:10070C00B0DE0C94B20307E5A3DEABDE00E2A0DEA4
:10071C00A8DE0C94B2030EE49BDEA3DE00E298DEAE
:10072C00A0DE0C94B20303E593DE9BDE00E290DEC8
:10073C0098DE0C94B20305E58BDE93DE00E288DED6
:10074C0090DE0C94B20304E483DE8BDE00E280DEE8
:10075C0088DE0C94B203189500E27ADE82DE00E2A9
:10076C0077DE7FDE40910002405D042F71DE79DE82
:02077C001895CE
:00000001FF
