:020000020000FC
:0C0000000C9433000C9439020C944A025A
:10005C000C94B3000C9432001895F8944FEF47B9F8
:10006C0040E05AEFF2E0E7E041935083F2E0E5E044
:10007C004193508344275527F2E0E9E041935083A4
:10008C00F2E0E1E04193408340931202409300027E
:10009C004093130240931A024093190240931802A2
:1000AC0041E050E9F2E0EBE041935083F2E0EDE007
:1000BC0041935083442750E5F2E0EFE041935083A5
:1000CC0041E04093170240E1409303024AE0409321
:1000DC00690043E04DBB0FEF0DBF01E20EBF0FEF08
:1000EC0000BB01B9002701BB02B908E38ED29DD237
:1000FC00B6D208E38AD299D2A9D208E386D295D295
:10010C0008E383D292D208E080D28FD201E07DD274
:10011C008CD206E07AD289D20EE077D286D203E571
:10012C007BD283D204E578D280D201E475D27DD221
:10013C0002E572D27AD204E56FD277D20AE36CD29E
:10014C0074D208E269D271D20DE466D26ED209E2A1
:10015C0063D26BD2CDD278941BC0F894C9D2809163
:10016C001602839584368F9371F441E04093170205
:10017C00409113024395409313028F9117D044275B
:10018C004093160203C08F918093160278941895B1
:10019C0044274093160240E044BD43E045BD41E096
:1001AC0040936E007894FFCF0C947701409100023D
:1001BC004030D1F360910002F2E0E1E041915081D6
:1001CC00560F6627461FF2E0E1E0419350834091C1
:1001DC000302407F403089F0403211F00C9418013A
:1001EC00F2E0E9E04191508160910002560FF2E09B
:1001FC00E9E0419350830C941001F2E0E9E0419165
:10020C00508160910002561BF2E0E9E0419350836B
:10021C000C941001543620F4503010F00C946801FA
:10022C000C947801409103024F70403031F0413012
:10023C0009F1423081F0433061F1F2E0E5E04191A7
:10024C00508160910002561B4040F2E0E5E0419382
:10025C0050830C945D01F2E0E5E041915081609196
:10026C000002560F6627461FF2E0E5E041935083EB
:10027C000C945D01F2E0E7E0419150816091000245
:10028C00560F6627461FF2E0E7E0419350830C942B
:10029C005D01F2E0E7E04191508160910002561B54
:1002AC004040F2E0E7E0419350830C945D01503004
:1002BC0011F44030B9F04230A8F458B9403011F084
:1002CC00543F80F440911202453048B929F04395CF
:1002DC00409312020C9477014427409312025CD293
:1002EC0018951895F89440911A02413009F087C07E
:1002FC0001E08BD19AD104E48FD197D109E48CD150
:10030C0094D103E589D191D104E586D18ED101E454
:10031C0083D18BD10EE480D188D103E47DD185D1FA
:10032C0005E47AD182D10AE377D17FD1F2E0E1E022
:10033C0041915081882777279927403041F45436D2
:10034C0030F45A3048F4503059F40C94BA015456E5
:10035C00404093950C94A3015A5083950C94A3019F
:10036C005A9573950C94A301905D805D705D092F77
:10037C0053D15BD1082F50D158D100EC46D155D177
:10038C0004E44AD152D105E547D14FD102E544D11D
:10039C004CD101E441D149D104E53ED146D109E427
:1003AC003BD143D10FE438D140D10EE435D13DD10E
:1003BC000AE332D13AD14091130288277727992743
:1003CC00443630F44A3040F4403051F40C94FA0185
:1003DC00445693950C94E6014A5083950C94E6018F
:1003EC004A9573950C94E601905D805D705D092FC4
:1003FC0013D11BD1082F10D118D10C9405020C94D9
:10040C00050240910302509103025F70503019F0C5
:10041C004A950C9412024D5F40930302089540914B
:10042C000302509103025F70533019F043950C9402
:10043C0020024350409303020895409103025091CF
:10044C000302507F503209F0405F4093030218952D
:10045C004091030250910302507F503009F04051FB
:10046C00409303021895F894409117024030E9F03C
:10047C00409100024430C9F0439540930002442758
:10048C004093170278941895F894409117024030D5
:10049C0061F040910002403041F04A9540930002D7
:1004AC004427409317027894189578941895F894EB
:1004BC0001E0ABD0BAD004E4AFD0B7D009E4ACD0F3
:1004CC00B4D003E5A9D0B1D002E5A6D0AED004E5F6
:1004DC00A3D0ABD009E4A0D0A8D00EE49DD0A5D079
:1004EC0001E49AD0A2D004E597D09FD009E494D02F
:1004FC009CD00FE491D099D00EE48ED096D00AE324
:10050C008BD093D000EC81D090D004D02CD054D090
:10051C0078941895AAD04F32E8F34533D8F75AE0BF
:10052C00459F5527F2E0EBE051930082042F74D0E5
:10053C007CD09BD04432E9F798D04F32E8F34A3361
:10054C00D8F7042F69D071D0F2E0EBE051916081C3
:10055C00640F4AE0469FF2E0EBE01192008200E269
:10056C005BD063D0189581D04F32E8F34533D8F780
:10057C005AE0459F5527F2E0EDE051930082042F9D
:10058C004BD053D072D04432E9F76FD04F32E8F3EE
:10059C004A33D8F7042F40D048D0F2E0EDE0519127
:1005AC006081640F4AE0469FF2E0EDE01192008218
:1005BC0000E232D03AD0189558D04F32E8F3453398
:1005CC00D8F75AE0459F5527F2E0EFE051930082AF
:1005DC00042F22D02AD049D04432E9F746D04F32EA
:1005EC00E8F34A33D8F7042F17D01FD0F2E0EFE02E
:1005FC0051916081640F4AE0469FF2E0EFE0119266
:10060C00008200E209D011D0189501BB1FD0169AB8
:10061C001DD016981BD0089501BB179A17D0169AA7
:10062C0015D0169813D0179808950F93002700BB78
:10063C0001BB159A0BD0169A09D00FB1169807FD6D
:10064C00F9CF15980FEF00BB0F9108958F939F93DF
:10065C009FE08CE90197F1F79F918F910895F6DF58
:10066C00F5DFF4DFF3DFF2DF089540EF40930A018A
:10067C003FEE11271430B1F130930B014FEF4A9537
:10068C00F1F7409109014F704F3059F021E00027EC
:10069C00043039F0542F522349F00395220F0C9457
:1006AC004E03330F339513950C944003133049F0DC
:1006BC00033059F0402F440F400F410F4F5C0C9406
:1006CC007A0341E4400F0C947A03103029F0113076
:1006DC0031F043E20C947A034AE20C947A0340E33F
:1006EC000C947A0344E2089508950C94D103DFDE50
:1006FC00BCDF509104024517C1F34093040244320D
:10070C00A1F34134A1F350E050931A024A3261F044
:10071C004332F1F0423399F14833A1F14433A9F15A
:10072C004633B1F10C94D10360911902603039F069
:10073C00609300025527509319022ED018956091A2
:10074C0000026093190266276093000225D0189569
:10075C0061E06093000250911802503051F050E06B
:10076C005093180275DE74DE51E050931A0214D0C7
:10077C00189551E05093180260DE0ED018955DDE8E
:10078C000BD0189565DE08D018953BDE05D0189572
:10079C0046DE02D01895189501E037DF46DF00E2FF
:1007AC003BDF43DF00E238DF40DF00E235DF3DDFD7
:1007BC0000E532DF3ADF0FE42FDF37DF03E52CDF14
:1007CC0034DF00E229DF31DF00E226DF2EDF00E23A
:1007DC0023DF2BDF04E420DF28DF09E41DDF25DF26
:1007EC0002E51ADF22DF00E217DF1FDF03E514DF6B
:1007FC001CDF00E511DF19DF04E40EDF16DF00EC6F
:10080C0004DF13DFF2E0E5E0419150818827772780
:10081C009927403041F4543630F45A3048F4503073
:10082C0059F40C9426045456404093950C940F04A0
:10083C005A5083950C940F045A9573950C940F048D
:10084C00905D805D705D092FE7DEEFDE082FE4DE42
:10085C00ECDE00E2E1DEE9DEF2E0E7E0419150811E
:10086C00882777279927403041F4543630F45A3092
:10087C0048F4503059F40C9450045456404093951D
:10088C000C9439045A5083950C9439045A957395E9
:10089C000C943904905D805D705D092FBDDEC5DE62
:1008AC00082FBADEC2DE00E2B7DEBFDEF2E0E9E01E
:1008BC0041915081882777279927403041F454364D
:1008CC0030F45A3048F4503059F40C947A0454569D
:1008DC00404093950C9463045A5083950C94630494
:1008EC005A9573950C946304905D805D705D092F2F
:1008FC0093DE9BDE082F90DE98DE00E28DDE95DE27
:10090C0000E28ADE92DE40910302407F4030C1F16A
:10091C00403271F1409103024F70403089F0413008
:10092C00B9F0423029F04330D9F048B90C94CF04D7
:10093C0005E472DE7ADE00E26FDE77DE0C94CF0423
:10094C0007E56ADE72DE00E267DE6FDE0C94CF0430
:10095C000EE462DE6ADE00E25FDE67DE0C94CF043A
:10096C0003E55ADE62DE00E257DE5FDE0C94CF0454
:10097C0005E552DE5ADE00E24FDE57DE0C94CF0462
:10098C0004E44ADE52DE00E247DE4FDE0C94CF0474
:10099C00189500E241DE49DE00E23EDE46DE409183
:0C09AC000002405D042F38DE40DE18958C
:00000001FF
