:020000020000FC
:0C0000000C9433000C944F020C9460022E
:10005C000C94BB000C9432001895F8944FEF47B9F0
:10006C0040E05AEFF2E0E7E041935083F2E0E5E044
:10007C004193508344275527F2E0E9E041935083A4
:10008C00F2E0E1E041934083F2E0E3E1419340830D
:10009C0040931202409300024093130240931B02C0
:1000AC0040931C0240931D0240931A024093190284
:1000BC0041E050E9F2E0EBE041935083F2E0EDE0F7
:1000CC0041935083442750E5F2E0EFE04193508395
:1000DC0041E04093180240E1409303024AE0409310
:1000EC00690043E04DBB0FEF0DBF01E20EBF0FEFF8
:1000FC0000BB01B9002701BB02B908E3AFD2BED2E5
:10010C00D7D208E3ABD2BAD2CAD208E3A7D2B6D2BE
:10011C0008E3A4D2B3D208E0A1D2B0D201E09ED2BF
:10012C00ADD206E09BD2AAD20EE098D2A7D203E5BC
:10013C009CD2A4D204E599D2A1D201E496D29ED24B
:10014C0002E593D29BD204E590D298D20AE38DD2E9
:10015C0095D208E28AD292D20DE487D28FD209E2EC
:10016C0084D28CD277D2789424C0F8944FB74F9322
:10017C00F4D280911702839584368F9399F441E0E1
:10018C0040931802F2E0E3E1919180810196F2E054
:10019C00E3E19193808312D21BD08F91442740933B
:1001AC00170203C08F91809317024F914FBF789421
:1001BC00189544274093170240E044BD43E045BDE9
:1001CC0041E040936E0078947894FECF0C948701B4
:1001DC0040910002D9F360910002F2E0E1E041911C
:1001EC005081560F6627461FF2E0E1E041935083A1
:1001FC0040910302407F403091F0403219F0403082
:10020C000C942A01F2E0E9E04191508160910002E6
:10021C00560FF2E0E9E0419350830C942201F2E096
:10022C00E9E04191508160910002561BF2E0E9E057
:10023C00419350830C942201543620F4503010F02A
:10024C000C9479010C948801409103024F7040305A
:10025C0031F0413009F1423081F0433061F1F2E08C
:10026C00E5E04191508160910002561B4040F2E064
:10027C00E5E0419350830C946F01F2E0E5E041918D
:10028C00508160910002560F6627461FF2E0E5E0B0
:10029C00419350830C946F01F2E0E7E0419150815F
:1002AC0060910002560F6627461FF2E0E7E041938B
:1002BC0050830C946F01F2E0E7E041915081609122
:1002CC000002561B4040F2E0E7E0419350830C944F
:1002DC006F01503011F44030A9F0423098F44030A6
:1002EC0011F0543F78F440911202453029F04395B7
:1002FC00409312020C94870144274093120283D23C
:10030C0008950895F89440911B02413009F08DC076
:10031C00F89401E0A3D1B2D104E4A7D1AFD109E4A0
:10032C00A4D1ACD103E5A1D1A9D104E59ED1A6D12C
:10033C0001E49BD1A3D10EE498D1A0D103E495D1D3
:10034C009DD105E492D19AD10AE38FD197D1F2E0F5
:10035C00E1E041915081882777279927403041F47B
:10036C00543630F45A3048F4503059F40C94CB01D4
:10037C005456404093950C94B4015A5083950C9468
:10038C00B4015A9573950C94B401905D805D705DC9
:10039C00092F6BD173D1082F68D170D100EC5ED1CD
:1003AC006DD104E462D16AD105E55FD167D102E574
:1003BC005CD164D101E459D161D104E556D15ED14F
:1003CC0009E453D15BD10FE450D158D10EE44DD197
:1003DC0055D10AE34AD152D1F2E0E3E14191508187
:1003EC00882777279927403041F4543630F45A3017
:1003FC0048F4503059F40C941002545640409395E4
:10040C000C94F9015A5083950C94F9015A957395F3
:10041C000C94F901905D805D705D092F26D12ED171
:10042C00082F23D12BD10C941B020C941B0240914E
:10043C000302509103025F70503019F04A950C94EE
:10044C0028024D5F4093030218954091030250918E
:10045C0003025F70533019F043950C9436024350ED
:10046C004093030218954091030250910302507F70
:10047C00503209F0405F40930302189540910302FB
:10048C0050910302507F503009F0405140930302C9
:10049C001895F894409118024030E9F04091000210
:1004AC004430C9F04395409300024427409318020E
:1004BC0078941895F89440911802403061F040916E
:1004CC000002403041F04A9540930002442740938B
:1004DC001802789418957894189501E0BFD0CED076
:1004EC0004E4C3D0CBD009E4C0D0C8D003E5BDD060
:1004FC00C5D004E5BAD0C2D009E4B7D0BFD00EE461
:10050C00B4D0BCD001E4B1D0B9D004E5AED0B6D0F3
:10051C0009E4ABD0B3D00FE4A8D0B0D00EE4A5D092
:10052C00ADD00AE3A2D0AAD000EC98D0A7D006D1C7
:10053C00413471F0EBE0F2E01ED0EDE0F2E01BD0C4
:10054C00EFE0F2E018D00BD041E040931D0208958B
:10055C0041E04093000241E040931D020895EED02B
:10056C004F32E8F34433D8F7042F7FD087D0405371
:10057C00409300020895EF93FF934F32E0F345331D
:10058C00D0F7042F72D07AD040535AE0459F402DBB
:10059C004F93D4D04F32E8F34A33D8F7042F65D0B9
:1005AC006DD06F914053640F4AE0469FDF91CF911D
:1005BC001082018200E259D061D0089560911D0231
:1005CC00613011F00C942D03F2E0E5E00191108103
:1005DC00F2E0EBE0419150811517040719F0F8F0A7
:1005EC000C941903F2E0E7E001911081F2E0EDE0E8
:1005FC00419150811517040719F0C8F00C94210390
:10060C00F2E0E9E001911081F2E0EFE041915081DC
:10061C00150719F0A0F00C9429030C948E0142E1FB
:10062C0040930302089540E140930302089541E191
:10063C0040930302089543E140930302089543E27B
:10064C0040930302089543E04093030208950895F4
:10065C000C94730273D04134D9F3089501BB1FD0AD
:10066C00169A1DD016981BD0089501BB179A17D057
:10067C00169A15D0169813D0179808950F93002733
:10068C0000BB01BB159A0BD0169A09D00FB1169866
:10069C0007FDF9CF15980FEF00BB0F9108958F93BD
:1006AC009F939FE08CE90197F1F79F918F910895AB
:1006BC00F6DFF5DFF4DFF3DFF2DF089540EF409370
:1006CC000A013FEE11271430B1F130930B014FEFBB
:1006DC004A95F1F7409109014F704F3059F021E0E4
:1006EC000027043039F0542F522349F00395220F80
:1006FC000C947703330F339513950C9469031330D3
:10070C0049F0033059F0402F440F400F410F4F5C1C
:10071C000C94A30341E4400F0C94A303103029F074
:10072C00113031F043E20C94A3034AE20C94A3037E
:10073C0040E30C94A30344E208950895BFDF4432D0
:10074C0011F40C94A40340931C02B8DF4432D9F783
:10075C0040911C0208950C94080460911D026130B4
:10076C00D1F3ACDF509104024517A9F34093040276
:10077C00443289F350E050931B024A3261F0433209
:10078C00F1F0423399F14833A1F14433A9F14633E6
:10079C00B1F10C94080460911A02603039F0609346
:1007AC000002552750931A022ED018956091000222
:1007BC0060931A0266276093000225D0189561E0B9
:1007CC006093000250911902503051F050E0509358
:1007DC00190254DE53DE51E050931B0214D01895CD
:1007EC0051E0509319023FDE0ED018953CDE0BD031
:1007FC00189544DE08D018951ADE05D0189525DE1C
:10080C0002D01895189501E029DF38DF00E22DDFC2
:10081C0035DF00E22ADF32DF00E227DF2FDF00E5E1
:10082C0024DF2CDF0FE421DF29DF03E51EDF26DFC9
:10083C0000E21BDF23DF00E218DF20DF00E215DF20
:10084C001DDF04E412DF1ADF09E40FDF17DF02E516
:10085C000CDF14DF00E209DF11DF03E506DF0EDF3A
:10086C0000E503DF0BDF04E400DF08DF00ECF6DE5D
:10087C0005DFF2E0E5E04191508188277727992741
:10088C00403041F4543630F45A3048F4503059F476
:10089C000C945D045456404093950C9446045A5065
:1008AC0083950C9446045A9573950C944604905D6C
:1008BC00805D705D092FD9DEE1DE082FD6DEDEDE2D
:1008CC0000E2D3DEDBDEF2E0E7E0419150818827E5
:1008DC0077279927403041F4543630F45A3048F495
:1008EC00503059F40C9487045456404093950C9412
:1008FC0070045A5083950C9470045A9573950C940B
:10090C007004905D805D705D092FAFDEB7DE082F3F
:10091C00ACDEB4DE00E2A9DEB1DEF2E0E9E041914A
:10092C005081882777279927403041F4543630F48A
:10093C005A3048F4503059F40C94B1045456404099
:10094C0093950C949A045A5083950C949A045A9546
:10095C0073950C949A04905D805D705D092F85DE13
:10096C008DDE082F82DE8ADE00E27FDE87DE00E28B
:10097C007CDE84DE40910302407F4030B9F140328E
:10098C0069F1409103024F70403081F04130B1F079
:10099C00423021F04330D1F00C94050505E465DEBE
:1009AC006DDE00E262DE6ADE0C94050507E55DDEB5
:1009BC0065DE00E25ADE62DE0C9405050EE455DEBF
:1009CC005DDE00E252DE5ADE0C94050503E54DDED9
:1009DC0055DE00E24ADE52DE0C94050505E545DEE7
:1009EC004DDE00E242DE4ADE0C94050504E43DDEF9
:1009FC0045DE00E23ADE42DE0C940505089500E285
:100A0C0034DE3CDE00E231DE39DE40910002405D36
:080A1C00042F2BDE33DE0895E8
:00000001FF
