:020000020000FC
:0C0000000C9433000C9442020C94530248
:10005C000C94B7000C9432001895F8944FEF47B9F4
:10006C0040E05AEFF2E0E7E041935083F2E0E5E044
:10007C004193508344275527F2E0E9E041935083A4
:10008C00F2E0E1E04193408340931202409300027E
:10009C004093130240931A0240931B0240931C029C
:1000AC00409319024093180241E050E9F2E0EBE072
:1000BC0041935083F2E0EDE041935083442750E5A7
:1000CC00F2E0EFE04193508341E04093170240E1AE
:1000DC00409303024AE04093690043E04DBB0FEFAD
:1000EC000DBF01E20EBF0FEF00BB01B9002701BB32
:1000FC0002B908E3A6D2B5D2CED208E3A2D2B1D2CD
:10010C00C1D208E39ED2ADD208E39BD2AAD208E0BA
:10011C0098D2A7D201E095D2A4D206E092D2A1D275
:10012C000EE08FD29ED203E593D29BD204E590D2FF
:10013C0098D201E48DD295D202E58AD292D204E50E
:10014C0087D28FD20AE384D28CD208E281D289D2B0
:10015C000DE47ED286D209E27BD283D26ED2789421
:10016C0020C0F8944FB74F93EBD280911602839531
:10017C0084368F9379F441E0409317024091130237
:10018C004395409313020DD21BD08F91442740937B
:10019C00160203C08F91809316024F914FBF789433
:1001AC00189544274093160240E044BD43E045BDFA
:1001BC0041E040936E0078947894FECF0C947F01CC
:1001CC0040910002D9F360910002F2E0E1E041912C
:1001DC005081560F6627461FF2E0E1E041935083B1
:1001EC0040910302407F403091F0403219F0403092
:1001FC000C942201F2E0E9E04191508160910002FF
:10020C00560FF2E0E9E0419350830C941A01F2E0AE
:10021C00E9E04191508160910002561BF2E0E9E067
:10022C00419350830C941A01543620F4503010F042
:10023C000C9471010C948001409103024F7040307A
:10024C0031F0413009F1423081F0433061F1F2E09C
:10025C00E5E04191508160910002561B4040F2E074
:10026C00E5E0419350830C946701F2E0E5E04191A5
:10027C00508160910002560F6627461FF2E0E5E0C0
:10028C00419350830C946701F2E0E7E04191508177
:10029C0060910002560F6627461FF2E0E7E041939B
:1002AC0050830C946701F2E0E7E04191508160913A
:1002BC000002561B4040F2E0E7E0419350830C945F
:1002CC006701503011F44030A9F0423098F44030BE
:1002DC0011F0543F78F440911202453029F04395C7
:1002EC00409312020C947F014427409312027ED259
:1002FC0008950895F89440911A02413009F088C08D
:10030C00F89401E09ED1ADD104E4A2D1AAD109E4C4
:10031C009FD1A7D103E59CD1A4D104E599D1A1D15A
:10032C0001E496D19ED10EE493D19BD103E490D1FC
:10033C0098D105E48DD195D10AE38AD192D1F2E01E
:10034C00E1E041915081882777279927403041F48B
:10035C00543630F45A3048F4503059F40C94C301EC
:10036C005456404093950C94AC015A5083950C9480
:10037C00AC015A9573950C94AC01905D805D705DE9
:10038C00092F66D16ED1082F63D16BD100EC59D1F6
:10039C0068D104E45DD165D105E55AD162D102E59D
:1003AC0057D15FD101E454D15CD104E551D159D17D
:1003BC0009E44ED156D10FE44BD153D10EE448D1C0
:1003CC0050D10AE345D14DD14091130288277727AC
:1003DC009927443630F44A3040F4403051F40C94B0
:1003EC000302445693950C94EF014A5083950C9458
:1003FC00EF014A9573950C94EF01905D805D705DF3
:10040C00092F26D12ED1082F23D12BD10C940E02DB
:10041C000C940E0240910302509103025F70503015
:10042C0019F04A950C941B024D5F409303021895EA
:10043C0040910302509103025F70533019F04395C1
:10044C000C942902435040930302189540910302E7
:10045C0050910302507F503209F0405F40930302E9
:10046C0018954091030250910302507F503009F0CF
:10047C004051409303021895F89440911702403074
:10048C00E9F0409100024430C9F0439540930002DA
:10049C0044274093170278941895F89440911702CA
:1004AC00403061F040910002403041F04A95409359
:1004BC000002442740931702789418957894189565
:1004CC0001E0BFD0CED004E4C3D0CBD009E4C0D07F
:1004DC00C8D003E5BDD0C5D004E5BAD0C2D009E47C
:1004EC00B7D0BFD00EE4B4D0BCD001E4B1D0B9D0F9
:1004FC0004E5AED0B6D009E4ABD0B3D00FE4A8D0AD
:10050C00B0D00EE4A5D0ADD00AE3A2D0AAD000ECB6
:10051C0098D0A7D006D1413471F0EBE0F2E01ED0B8
:10052C00EDE0F2E01BD0EFE0F2E018D00BD041E0B0
:10053C0040931C02089541E04093000241E0409337
:10054C001C020895EED04F32E8F34433D8F7042F51
:10055C007FD087D04053409300020895EF93FF93D0
:10056C004F32E0F34533D0F7042F72D07AD040539A
:10057C005AE0459F402D4F93D4D04F32E8F34A3385
:10058C00D8F7042F65D06DD06F914053640F4AE0BB
:10059C00469FDF91CF911082018200E259D061D049
:1005AC00089560911C02613011F00C942003F2E06C
:1005BC00E5E001911081F2E0EBE0419150811517DB
:1005CC00040719F0F8F00C940C03F2E0E7E0019149
:1005DC001081F2E0EDE0419150811517040719F0FC
:1005EC00C8F00C941403F2E0E9E001911081F2E000
:1005FC00EFE041915081150719F0A0F00C941C0309
:10060C000C94860142E140930302089540E140932B
:10061C000302089541E140930302089543E140939E
:10062C000302089543E240930302089543E040938C
:10063C000302089508950C94660273D04134D9F3E3
:10064C00089501BB1FD0169A1DD016981BD0089583
:10065C0001BB179A17D0169A15D0169813D0179865
:10066C0008950F93002700BB01BB159A0BD0169A67
:10067C0009D00FB1169807FDF9CF15980FEF00BBF5
:10068C000F9108958F939F939FE08CE90197F1F759
:10069C009F918F910895F6DFF5DFF4DFF3DFF2DF42
:1006AC00089540EF40930A013FEE11271430B1F149
:1006BC0030930B014FEF4A95F1F7409109014F70C0
:1006CC004F3059F021E00027043039F0542F5223D9
:1006DC0049F00395220F0C946A03330F339513954D
:1006EC000C945C03133049F0033059F0402F440F45
:1006FC00400F410F4F5C0C94960341E4400F0C9457
:10070C009603103029F0113031F043E20C9496032B
:10071C004AE20C94960340E30C94960344E2089549
:10072C000895BFDF443211F40C94970340931B02DD
:10073C00B8DF4432D9F740911B0208950C94FB03A7
:10074C0060911C026130D1F3ACDF5091040245176B
:10075C00A9F340930402443289F350E050931A02F7
:10076C004A3261F04332F1F0423399F14833A1F14E
:10077C004433A9F14633B1F10C94FB036091190297
:10078C00603039F0609300025527509319022ED037
:10079C00189560910002609319026627609300021D
:1007AC0025D0189561E060930002509118025030EA
:1007BC0051F050E05093180254DE53DE51E0509348
:1007CC001A0214D0189551E0509318023FDE0ED047
:1007DC0018953CDE0BD0189544DE08D018951ADE1F
:1007EC0005D0189525DE02D01895189501E029DF63
:1007FC0038DF00E22DDF35DF00E22ADF32DF00E2F6
:10080C0027DF2FDF00E524DF2CDF0FE421DF29DFDA
:10081C0003E51EDF26DF00E21BDF23DF00E218DF2B
:10082C0020DF00E215DF1DDF04E412DF1ADF09E42C
:10083C000FDF17DF02E50CDF14DF00E209DF11DF49
:10084C0003E506DF0EDF00E503DF0BDF04E400DF6A
:10085C0008DF00ECF6DE05DFF2E0E5E041915081C7
:10086C00882777279927403041F4543630F45A3092
:10087C0048F4503059F40C9450045456404093951D
:10088C000C9439045A5083950C9439045A957395E9
:10089C000C943904905D805D705D092FD9DEE1DE2A
:1008AC00082FD6DEDEDE00E2D3DEDBDEF2E0E7E0B0
:1008BC0041915081882777279927403041F454364D
:1008CC0030F45A3048F4503059F40C947A0454569D
:1008DC00404093950C9463045A5083950C94630494
:1008EC005A9573950C946304905D805D705D092F2F
:1008FC00AFDEB7DE082FACDEB4DE00E2A9DEB1DE7F
:10090C00F2E0E9E041915081882777279927403020
:10091C0041F4543630F45A3048F4503059F40C94B5
:10092C00A4045456404093950C948D045A508395CE
:10093C000C948D045A9573950C948D04905D805D88
:10094C00705D092F85DE8DDE082F82DE8ADE00E2E7
:10095C007FDE87DE00E27CDE84DE40910302407F96
:10096C004030B9F1403269F1409103024F70403090
:10097C0081F04130B1F0423021F04330D1F00C9491
:10098C00F80405E465DE6DDE00E262DE6ADE0C94DE
:10099C00F80407E55DDE65DE00E25ADE62DE0C94EB
:1009AC00F8040EE455DE5DDE00E252DE5ADE0C94F5
:1009BC00F80403E54DDE55DE00E24ADE52DE0C940F
:1009CC00F80405E545DE4DDE00E242DE4ADE0C941D
:1009DC00F80404E43DDE45DE00E23ADE42DE0C942F
:1009EC00F804089500E234DE3CDE00E231DE39DE4C
:0E09FC0040910002405D042F2BDE33DE089593
:00000001FF
