:020000020000FC
:0C0000000C9433000C9492010C949B01B2
:10005C000C9474000C9432001895F8944FEF47B937
:10006C0042E04093010241E05CE2F2E0E3E04193C4
:10007C005083F2E0E5E0419350834427409307021C
:10008C004093000245E04093690043E04DBB0FEF05
:10009C000DBF01E20EBF0FEF00BB01B9002701BB82
:1000AC0002B908E34CD15BD174D108E348D157D1E4
:1000BC0067D108E344D153D108E341D150D108E0D2
:1000CC003ED14DD101E03BD14AD106E038D147D1E8
:1000DC000EE035D144D1A3D1789413C0A0D1809136
:1000EC0008028395843651F4F8941BD0BAD17894D5
:1000FC00E8E0F2E044274193408302C08093080279
:10010C001895E8E0F2E044274193408340E044BD79
:10011C0043E045BD41E040936E007894FFCF0C94D2
:10012C00F100409100024030D1F340910102407F38
:10013C004030A9F3423099F3409101024F704030A6
:10014C0031F0413009F1423081F0433061F1F2E09D
:10015C00E3E04191508160910002561B4040F2E077
:10016C00E3E0419350830C94E700F2E0E3E041912B
:10017C00508160910002560F6627461FF2E0E3E0C3
:10018C00419350830C94E700F2E0E5E041915081FB
:10019C0060910002560F6627461FF2E0E5E041939E
:1001AC0050830C94E700F2E0E5E0419150816091BE
:1001BC000002561B4040F2E0E5E0419350830C9462
:1001CC00E700503011F4403039F0423028F4403020
:1001DC0011F0543F08F41895F89401E0B0D0BFD05A
:1001EC00F2E0E3E04191508188277727992740304E
:1001FC0041F4543630F45A3048F4503059F40C94DD
:10020C0014015456404093950C94FD005A5083951C
:10021C000C94FD005A9573950C94FD00905D805DD7
:10022C00705D092F93D09BD0082F90D098D00EE200
:10023C008DD095D0072F8AD092D000E287D08FD066
:10024C00F2E0E5E0419150818827772799274030EB
:10025C0041F4543630F45A3048F4503059F40C947C
:10026C0044015456404093950C942D015A5083955B
:10027C000C942D015A9573950C942D01905D805D15
:10028C00705D092F63D06BD0082F60D068D00EE260
:10029C005DD065D0072F5AD062D000E257D05FD026
:1002AC0040910002405D042F51D059D00C945E0156
:1002BC000C945E014091010250910102517050303A
:1002CC0019F04A950C946B014D5F4093010208950F
:1002DC0040910102509101025F70533019F0439527
:1002EC000C9479014350409301020895409101020E
:1002FC0050910102507F503209F0405F409301024F
:10030C0018954091010250910102507F503009F034
:10031C00405140930102189540910002443071F015
:10032C004395409300027894189540910002403018
:10033C0029F04A954093000278941895189501BBC2
:10034C001FD0169A1DD016981BD0089501BB179A72
:10035C0017D0169A15D0169813D0179808950F9396
:10036C00002700BB01BB159A0BD0169A09D00FB110
:10037C00169807FDF9CF15980FEF00BB0F91089554
:10038C008F939F939FE08CE90197F1F79F918F9149
:10039C000895F6DFF5DFF4DFF3DFF2DF089540EFC9
:1003AC0040930A013FEE11271430B1F130930B0149
:1003BC004FEF4A95F1F7409109014F704F3059F0CA
:1003CC0021E00027043039F0542F522349F00395D3
:1003DC00220F0C94E801330F339513950C94DA012A
:1003EC00133049F0033059F0402F440F400F410FA8
:1003FC004F5C0C94140241E4400F0C941402103026
:10040C0029F0113031F043E20C9414024AE20C94BE
:10041C00140240E30C94140244E208950895BFDFE3
:10042C004432F1F0509102024517C1F040930202A0
:10043C00423341F0483349F0443351F0463359F0DC
:10044C000C94340253DF0DD018955BDF0AD018954D
:10045C0031DF07D018953CDF04D0189502D01895E1
:10046C00189501E06CDF7BDF00E570DF78DF0FE4CF
:10047C006DDF75DF03E56ADF72DF00E267DF6FDFD8
:10048C0000E264DF6CDF00E261DF69DF04E45EDF61
:10049C0066DF09E45BDF63DF02E558DF60DF00E263
:1004AC0055DF5DDF00E252DF5ADF00E24FDF57DF3E
:1004BC0003E54CDF54DF00E549DF51DF04E446DFA0
:1004CC004EDF00EC3CDF4BDFF2E0E3E0419150818A
:1004DC00882777279927403041F4543630F45A3026
:1004EC0048F4503059F40C9488025456404093957B
:1004FC000C9471025A5083950C9471025A95739511
:10050C000C947102905D805D705D092F1FDF27DFF9
:10051C00082F1CDF24DF0EE219DF21DF072F16DF87
:10052C001EDF00E213DF1BDFF2E0E5E041915081BA
:10053C00882777279927403041F4543630F45A30C5
:10054C0048F4503059F40C94B802545640409395EA
:10055C000C94A1025A5083950C94A1025A95739550
:10056C000C94A102905D805D705D092FEFDEF7DECB
:10057C00082FECDEF4DE0EE2E9DEF1DE072FE6DE1C
:10058C00EEDE00E2E3DEEBDE40910102407F403024
:10059C00A9F1403259F1409101024F70403071F095
:1005AC004130A1F0423011F04330C1F005E4CEDE11
:1005BC00D6DE00E2CBDED3DE0C940D0307E5C6DEFF
:1005CC00CEDE00E2C3DECBDE0C940D030EE4BEDE09
:1005DC00C6DE00E2BBDEC3DE0C940D0303E5B6DE23
:1005EC00BEDE00E2B3DEBBDE0C940D0305E5AEDE31
:1005FC00B6DE00E2ABDEB3DE0C940D0304E4A6DE43
:10060C00AEDE00E2A3DEABDE0C940D031895409138
:0C061C000002405D042F9ADEA2DE18955B
:00000001FF
