:020000020000FC
:0C0000000C9430000C9442010C944C0154
:10005C000C9480004FEF47B942E0409300024AEF06
:10006C005527FF27E091020251934083FF27E0912F
:10007C0004025193408344274093060240930702A5
:10008C0045E04093690043E04DBB40E044BD43E094
:10009C0045BD41E040936E0044274093080278949C
:1000AC000FEF0DBF01E20EBF0FEF00BB01B9002730
:1000BC0001BB02B908E3F4D003D11CD108E3F0D0A2
:1000CC00FFD00FD108E3ECD0FBD008E3E9D0F8D097
:1000DC0008E0E6D0F5D001E0E3D0F2D006E0E0D0C5
:1000EC00EFD00EE0DDD0ECD069D17894442748B93C
:1000FC000C947B00789440910802443639F44427E0
:10010C00409308024FEF48B97894189539D108D02C
:10011C004091080243954093080218950C94F20004
:10012C00409107024030D1F3409100024F704030B3
:10013C0031F0413031F1423099F0433099F1609116
:10014C000702FF27E091020241915081561B6FEF8D
:10015C004040FF27E0910202419350830C94E80049
:10016C0060910702FF27E091020241915081560FE6
:10017C006627461FFF27E0910202419350830C949F
:10018C00E80060910702FF27E09104024191508141
:10019C00560F6627461FFF27E091040241935083B8
:1001AC000C94E80060910702FF27E0910402419152
:1001BC005081561B4040FF27E0910402419350832D
:1001CC000C94E800503019F4403009F406D041305A
:1001DC001CF0543F0CF001D01895F89401E060D05D
:1001EC006FD003E464D06CD002E561D069D001E437
:1001FC005ED066D003E55BD063D008E458D060D005
:10020C00FF27E09104024191508158B90C940E01E2
:10021C000C940E0140910002509100025F7050301E
:10022C0019F04A950C941B014D5F40930002089500
:10023C0040910002509100025F70533019F04395C9
:10024C000C94290143504093000208954091000200
:10025C0050910002507F503209F0405F40930002F1
:10026C0018954091000250910002507F503009F0D7
:10027C00405140930002189540910702443079F0A8
:10028C004395409307024FEF7894189540910702DD
:10029C00403029F04A9540930702789418951895A8
:1002AC0001BB1FD0169A1DD016981BD0089501BB08
:1002BC00179A17D0169A15D0169813D01798089528
:1002CC000F93002700BB01BB159A0BD0169A09D0CF
:1002DC000FB1169807FDF9CF15980FEF00BB0F91D2
:1002EC0008958F939F939FE08CE90197F1F79F916D
:1002FC008F910895F6DFF5DFF4DFF3DFF2DF089579
:10030C0040EF40930A013FEE11271430B1F13093C6
:10031C000B014FEF4A95F1F7409109014F704F30A7
:10032C0059F021E00027043039F0542F522349F0C2
:10033C000395220F0C949901330F339513950C945C
:10034C008B01133049F0033059F0402F440F400F0C
:10035C00410F4F5C0C94C50141E4400F0C94C50156
:10036C00103029F0113031F043E20C94C5014AE20F
:10037C000C94C50140E30C94C50144E20895089522
:10038C00BFDF509101024517C1F040930102423387
:10039C0041F0483349F0443351F0463359F00C9452
:1003AC00E30154DF0BD018955CDF08D0189532DFD1
:1003BC0005D018953DDF02D01895189501E070DF37
:1003CC007FDF00E574DF7CDF0FE471DF79DF03E5AD
:1003DC006EDF76DF00E26BDF73DF00E268DF70DF79
:1003EC0000E265DF6DDF04E462DF6ADF09E45FDFF2
:1003FC0067DF02E55CDF64DF00E259DF61DF00E20A
:10040C0056DF5EDF00E253DF5BDF03E550DF58DFD2
:10041C0000E54DDF55DF04E44ADF52DF00EC40DF3E
:10042C004FDF00E244DF4CDF00E241DF49DF00E256
:10043C003EDF46DF00E23BDF43DF00E238DF40DF38
:10044C0000E235DF3DDF00E232DF3ADF40910002AF
:10045C00407F4030A9F1403259F1409100024F7079
:10046C00403071F04130A1F0423011F04330C1F016
:10047C0005E41DDF25DF00E21ADF22DF0C946F029A
:10048C0007E515DF1DDF00E212DF1ADF0C946F02A7
:10049C000EE40DDF15DF00E20ADF12DF0C946F02B1
:1004AC0003E505DF0DDF00E202DF0ADF0C946F02CB
:1004BC0005E5FDDE05DF00E2FADE02DF0C946F02DB
:1004CC0004E4F5DEFDDE00E2F2DEFADE0C946F02EF
:1004DC00189540910702405D042FE9DEF1DE189576
:00000001FF
