:020000020000FC
:100000000C9402001FEF17B912E0109300020FEFDB
:100010000DBF01E20EBF0FEF00BB01B9002701BB0E
:1000200002B908E389D098D0B1D008E385D094D044
:10003000A4D008E381D090D008E37ED08DD008E032
:100040007BD08AD001E078D087D006E075D084D00C
:100050000EE072D081D000E576D07ED00FE473D070
:100060007BD003E570D078D000E26DD075D000E28F
:100070006AD072D000E267D06FD004E464D06CD054
:1000800009E461D069D002E55ED066D000E25BD0C1
:1000900063D000E258D060D000E255D05DD003E5D7
:1000A00052D05AD000E54FD057D004E44CD054D0B1
:1000B00000EC42D051D00ED00DD00CD00BD018D0C7
:1000C00025D024D023D022D02CD01091000218B9F2
:1000D0000C94680010910002209100022F702030D3
:1000E00019F01A950C9475001D5F10930002089585
:1000F00010910002209100022F70233019F0139507
:100100000C94830013501093000208951091000284
:1001100020910002207F203209F0105F109300022E
:1001200018951091000220910002207F203009F0E4
:10013000105110930002189501BB1FD0169A1DD0C4
:1001400016981BD0089501BB179A17D0169A15D090
:10015000169813D0179808950F93002700BB01BB82
:10016000159A0BD0169A09D00FB1169807FDF9CF42
:1001700015980FEF00BB0F9108958F939F939FE009
:100180008CE90197F1F79F918F910895F6DFF5DFE4
:08019000F4DFF3DFF2DF089554
:00000001FF
