:020000020000FC
:0C0000000C9433000C943E010C94480159
:10005C000C9473000C94320018954FEF47B942E0A2
:10006C004093000244275AEFFF27E091020241938C
:10007C005083FF27E0910402419350834093060282
:10008C004093070245E04093690043E04DBB0FEFFE
:10009C000DBF01E20EBF0FEF00BB01B9002701BB82
:1000AC0002B908E3F9D008D121D108E3F5D004D185
:1000BC0014D108E3F1D000D108E3EED0FDD008E074
:1000CC00EBD0FAD001E0E8D0F7D006E0E5D0F4D0E0
:1000DC000EE0E2D0F1D050D110C04ED11ED08091A4
:1000EC0008028395843631F4C8E0D2E04427488373
:1000FC00488302C0809308021895C8E0D2E04427D8
:10010C004883488340E044BD43E045BD41E0409313
:10011C006E007894FFCF0C94EE00409107024030B3
:10012C00D1F3409100024F70403031F0413029F151
:10013C00423091F0433091F160910702FF27E0913A
:10014C00020241915081561B4040FF27E091020270
:10015C00419350830C94E40060910702FF27E091D7
:10016C00020241915081560F6627461FFF27E091EE
:10017C000202419350830C94E40060910702FF2724
:10018C00E091040241915081560F6627461FFF27CC
:10019C00E0910402419350830C94E40060910702B7
:1001AC00FF27E091040241915081561B4040FF27EC
:1001BC00E0910402419350830C94E400503011F40C
:1001CC00403039F0413028F4403011F0543F08F4FD
:1001DC001895F89401E060D06FD003E464D06CD033
:1001EC0002E561D069D001E45ED066D003E55BD056
:1001FC0063D008E458D060D0FF27E091040241910D
:10020C00508158B90C940A010C940A0140910002D7
:10021C00509100025F70503019F04A950C94170100
:10022C004D5F4093000208954091000250910002EE
:10023C005F70533019F043950C9425014350409353
:10024C00000208954091000250910002507F5032FC
:10025C0009F0405F409300021895409100025091C4
:10026C000002507F503009F0405140930002189525
:10027C0040910702443079F04395409307024FEFC9
:10028C007894189540910702403029F04A95409394
:10029C00070278941895189501BB1FD0169A1DD09B
:1002AC0016981BD0089501BB179A17D0169A15D023
:1002BC00169813D0179808950F93002700BB01BB15
:1002CC00159A0BD0169A09D00FB1169807FDF9CFD5
:1002DC0015980FEF00BB0F9108958F939F939FE09C
:1002EC008CE90197F1F79F918F910895F6DFF5DF77
:1002FC00F4DFF3DFF2DF089540EF40930A013FEEA5
:10030C0011271430B1F130930B014FEF4A95F1F7EF
:10031C00409109014F704F3059F021E00027043013
:10032C0039F0542F522349F00395220F0C94950168
:10033C00330F339513950C948701133049F0033028
:10034C0059F0402F440F400F410F4F5C0C94C101EA
:10035C0041E4400F0C94C101103029F0113031F000
:10036C0043E20C94C1014AE20C94C10140E30C94A9
:10037C00C10144E208950895BFDF50910102451771
:10038C00C1F040930102423341F0483349F0443309
:10039C0051F0463359F00C94DF0154DF0BD0189513
:1003AC005CDF08D0189532DF05D018953DDF02D000
:1003BC001895189501E070DF7FDF00E574DF7CDFB6
:1003CC000FE471DF79DF03E56EDF76DF00E26BDFD0
:1003DC0073DF00E268DF70DF00E265DF6DDF04E4ED
:1003EC0062DF6ADF09E45FDF67DF02E55CDF64DFA1
:1003FC0000E259DF61DF00E256DF5EDF00E253DF2F
:10040C005BDF03E550DF58DF00E54DDF55DF04E42B
:10041C004ADF52DF00EC40DF4FDFFF27E0910202A2
:10042C0041915081882777279927403041F45436E1
:10043C0030F45A3048F4503059F40C94320254567B
:10044C00939598B90C941B025A5083950C941B02EB
:10045C005A9573950C941B02905D805D705D092F0D
:10046C0022DF2ADF082F1FDF27DF0EE21CDF24DF4D
:10047C00072F19DF21DFFF27E09104024191508102
:10048C00882777279927403041F4543630F45A3076
:10049C0048F4503059F40C9460025456939598B922
:1004AC000C9449025A5083950C9449025A957395B1
:1004BC000C944902905D805D705D092FF4DEFCDECA
:1004CC00082FF1DEF9DE0EE2EEDEF6DE072FEBDEB4
:1004DC00F3DE40910002407F4030A9F1403259F1E7
:1004EC00409100024F70403071F04130A1F0423029
:1004FC0011F04330C1F005E4D6DEDEDE00E2D3DEDF
:10050C00DBDE0C94B20207E5CEDED6DE00E2CBDEFB
:10051C00D3DE0C94B2020EE4C6DECEDE00E2C3DE05
:10052C00CBDE0C94B20203E5BEDEC6DE00E2BBDE1F
:10053C00C3DE0C94B20205E5B6DEBEDE00E2B3DE2D
:10054C00BBDE0C94B20204E4AEDEB6DE00E2ABDE3F
:10055C00B3DE0C94B202189540910702405D042F53
:06056C00A2DEAADE1895D4
:00000001FF
