:020000020000FC
:0C0000000C9433000C94A2010C94AB0192
:10005C000C9476000C9432001895F8944FEF47B935
:10006C0041E04093010240E05AEFF2E0E5E04193B9
:10007C005083F2E0E3E0419350834427409308021D
:10008C00409307024093000245E04093690043E02F
:10009C004DBB0FEF0DBF01E20EBF0FEF00BB01B95F
:1000AC00002701BB02B908E35AD169D182D108E318
:1000BC0056D165D175D108E352D161D108E34FD146
:1000CC005ED108E04CD15BD101E049D158D106E0BA
:1000DC0046D155D10EE043D152D1B1D1789413C051
:1000EC00F894ADD180910902839584368F9331F4C5
:1000FC008F9117D044274093090203C08F918093AE
:10010C0009027894189544274093090240E044BDB5
:10011C0043E045BD41E040936E007894FFCF0C94D2
:10012C000101409100024030D1F340910102407F27
:10013C004030A9F3423099F3409101024F704030A6
:10014C0031F0413009F1423081F0433061F1F2E09D
:10015C00E3E04191508160910002561B4040F2E077
:10016C00E3E0419350830C94E700F2E0E3E041912B
:10017C00508160910002560F6627461FF2E0E3E0C3
:10018C00419350830C94E700F2E0E5E041915081FB
:10019C0060910002560F6627461FF2E0E5E041939E
:1001AC0050830C94E700F2E0E5E0419150816091BE
:1001BC000002561B4040F2E0E5E0419350830C9462
:1001CC00E700503011F44030B9F04230A8F458B97F
:1001DC00403011F0543F80F440910802453048B94A
:1001EC0029F04395409308020C9401014427409355
:1001FC00080243D118951895F89401E0B0D0BFD0FF
:10020C00F2E0E3E04191508188277727992740302D
:10021C0041F4543630F45A3048F4503059F40C94BC
:10022C0024015456404093950C940D015A508395DB
:10023C000C940D015A9573950C940D01905D805D95
:10024C00705D092F93D09BD0082F90D098D00EE2E0
:10025C008DD095D0072F8AD092D000E287D08FD046
:10026C00F2E0E5E0419150818827772799274030CB
:10027C0041F4543630F45A3048F4503059F40C945C
:10028C0054015456404093950C943D015A5083951B
:10029C000C943D015A9573950C943D01905D805DD5
:1002AC00705D092F63D06BD0082F60D068D00EE240
:1002BC005DD065D0072F5AD062D000E257D05FD006
:1002CC0040910002405D042F51D059D00C946E0126
:1002DC000C946E0140910102509101025F705030FC
:1002EC0019F04A950C947B014D5F409301020895DF
:1002FC0040910102509101025F70533019F0439507
:10030C000C948901435040930102089540910102DD
:10031C0050910102507F503209F0405F409301022E
:10032C0018954091010250910102507F503009F014
:10033C00405140930102189540910002443071F0F5
:10034C0043954093000278941895409100024030F8
:10035C0029F04A954093000278941895189501BBA2
:10036C001FD0169A1DD016981BD0089501BB179A52
:10037C0017D0169A15D0169813D0179808950F9376
:10038C00002700BB01BB159A0BD0169A09D00FB1F0
:10039C00169807FDF9CF15980FEF00BB0F91089534
:1003AC008F939F939FE08CE90197F1F79F918F9129
:1003BC000895F6DFF5DFF4DFF3DFF2DF089540EFA9
:1003CC0040930A013FEE11271430B1F130930B0129
:1003DC004FEF4A95F1F7409109014F704F3059F0AA
:1003EC0021E00027043039F0542F522349F00395B3
:1003FC00220F0C94F801330F339513950C94EA01EA
:10040C00133049F0033059F0402F440F400F410F87
:10041C004F5C0C94240241E4400F0C9424021030E5
:10042C0029F0113031F043E20C9424024AE20C948E
:10043C00240240E30C94240244E208950895BFDFA3
:10044C00509102024517C1F040930202423341F031
:10045C00483349F0443351F0463359F00C9442027E
:10046C0055DF0BD018955DDF08D0189533DF05D01C
:10047C0018953EDF02D01895189501E070DF7FDFEC
:10048C0000E574DF7CDF0FE471DF79DF03E56EDFFD
:10049C0076DF00E26BDF73DF00E268DF70DF00E223
:1004AC0065DF6DDF04E462DF6ADF09E45FDF67DFCD
:1004BC0002E55CDF64DF00E259DF61DF00E256DF5A
:1004CC005EDF00E253DF5BDF03E550DF58DF00E562
:1004DC004DDF55DF04E44ADF52DF00EC40DF4FDF35
:1004EC00F2E0E3E04191508188277727992740304B
:1004FC0041F4543630F45A3048F4503059F40C94DA
:10050C0094025456404093950C947D025A50839516
:10051C000C947D025A9573950C947D02905D805DD0
:10052C00705D092F23DF2BDF082F20DF28DF0EE281
:10053C001DDF25DF072F1ADF22DF00E217DF1FDFA9
:10054C00F2E0E5E0419150818827772799274030E8
:10055C0041F4543630F45A3048F4503059F40C9479
:10056C00C4025456404093950C94AD025A50839556
:10057C000C94AD025A9573950C94AD02905D805D10
:10058C00705D092FF3DEFBDE082FF0DEF8DE0EE2E5
:10059C00EDDEF5DE072FEADEF2DE00E2E7DEEFDE6F
:1005AC0040910102407F4030C1F1403271F14091E5
:1005BC0001024F70403089F04130B9F0423029F0DF
:1005CC004330D9F048B90C941C0305E4CFDED7DED8
:1005DC0000E2CCDED4DE0C941C0307E5C7DECFDED4
:1005EC0000E2C4DECCDE0C941C030EE4BFDEC7DEDE
:1005FC0000E2BCDEC4DE0C941C0303E5B7DEBFDEF8
:10060C0000E2B4DEBCDE0C941C0305E5AFDEB7DE05
:10061C0000E2ACDEB4DE0C941C0304E4A7DEAFDE17
:10062C0000E2A4DEACDE0C941C0318954091000291
:0A063C00405D042F9BDEA3DE18953D
:00000001FF
