:020000020000FC
:0C0000000C9433000C9441020C9452024A
:10005C000C94B8000C9432001895F8944FEF47B9F3
:10006C0040E05AEFF2E0E7E041935083F2E0E5E044
:10007C004193508344275527F2E0E9E041935083A4
:10008C00F2E0E1E04193408340931202409300027E
:10009C004093130240931A0240931B0240931C029C
:1000AC00409319024093180241E050E9F2E0EBE072
:1000BC0041935083F2E0EDE041935083442750E5A7
:1000CC00F2E0EFE04193508341E04093170240E1AE
:1000DC00409303024AE04093690043E04DBB0FEFAD
:1000EC000DBF01E20EBF0FEF00BB01B9002701BB32
:1000FC0002B908E39DD2ACD2C5D208E399D2A8D2FA
:10010C00B8D208E395D2A4D208E392D2A1D208E0E7
:10011C008FD29ED201E08CD29BD206E089D298D2AB
:10012C000EE086D295D203E58AD292D204E587D22C
:10013C008FD201E484D28CD202E581D289D204E53B
:10014C007ED286D20AE37BD283D208E278D280D2E6
:10015C000DE475D27DD209E272D27AD265D2E9D29F
:10016C0078941EC0F894E5D280911602839584365B
:10017C008F9389F441E04093170240911302439509
:10018C0040931302FDD14FEF48B98F9117D04427FC
:10019C004093160203C08F918093160278941895A1
:1001AC0044274093160240E044BD43E045BD41E086
:1001BC0040936E007894FFCF0C947F014091000225
:1001CC004030D1F360910002F2E0E1E041915081C6
:1001DC00560F6627461FF2E0E1E0419350834091B1
:1001EC000302407F403089F0403211F00C94200122
:1001FC00F2E0E9E04191508160910002560FF2E08B
:10020C00E9E0419350830C941801F2E0E9E041914C
:10021C00508160910002561BF2E0E9E0419350835B
:10022C000C941801543620F4503010F00C947001DA
:10023C000C948001409103024F70403031F04130FA
:10024C0009F1423081F0433061F1F2E0E5E0419197
:10025C00508160910002561B4040F2E0E5E0419372
:10026C0050830C946501F2E0E5E04191508160917E
:10027C000002560F6627461FF2E0E5E041935083DB
:10028C000C946501F2E0E7E041915081609100022D
:10029C00560F6627461FF2E0E7E0419350830C941B
:1002AC006501F2E0E7E04191508160910002561B3C
:1002BC004040F2E0E7E0419350830C9465015030EC
:1002CC0011F44030B9F04230A8F458B9403011F074
:1002DC00543F80F440911202453048B929F04395BF
:1002EC00409312020C947F0144274093120273D264
:1002FC0018951895F89440911A02413009F087C06E
:10030C0001E096D1A5D104E49AD1A2D109E497D108
:10031C009FD103E594D19CD104E591D199D101E40D
:10032C008ED196D10EE48BD193D103E488D190D1A8
:10033C0005E485D18DD10AE382D18AD1F2E0E1E0E6
:10034C0041915081882777279927403041F45436C2
:10035C0030F45A3048F4503059F40C94C2015456CD
:10036C00404093950C94AB015A5083950C94AB017F
:10037C005A9573950C94AB01905D805D705D092F5F
:10038C005ED166D1082F5BD163D100EC51D160D125
:10039C0004E455D15DD105E552D15AD102E54FD1D6
:1003AC0057D101E44CD154D104E549D151D109E4E0
:1003BC0046D14ED10FE443D14BD10EE440D148D1BC
:1003CC000AE33DD145D1409113028827772799271D
:1003DC00443630F44A3040F4403051F40C9402026C
:1003EC00445693950C94EE014A5083950C94EE016F
:1003FC004A9573950C94EE01905D805D705D092FAC
:10040C001ED126D1082F1BD123D10C940D020C9494
:10041C000D0240910302509103025F70503019F0AD
:10042C004A950C941A024D5F409303021895409123
:10043C000302509103025F70533019F043950C94F2
:10044C0028024350409303021895409103025091A7
:10045C000302507F503209F0405F4093030218951D
:10046C004091030250910302507F503009F04051EB
:10047C00409303021895F894409117024030E9F02C
:10048C00409100024430C9F0439540930002442748
:10049C004093170278941895F894409117024030C5
:1004AC0061F040910002403041F04A9540930002C7
:1004BC004427409317027894189578941895F894DB
:1004CC0001E0B6D0C5D004E4BAD0C2D009E4B7D0AC
:1004DC00BFD003E5B4D0BCD004E5B1D0B9D009E4A9
:1004EC00AED0B6D00EE4ABD0B3D001E4A8D0B0D02F
:1004FC0004E5A5D0ADD009E4A2D0AAD00FE49FD0DA
:10050C00A7D00EE49CD0A4D00AE399D0A1D000ECE3
:10051C008FD09ED0EBE0F2E007D0EDE0F2E004D01B
:10052C00EFE0F2E001D00895CF93DF93EF93FF93C8
:10053C00EFD04F32C8F34533B8F7042F80D088D0B2
:10054C0040535AE0459F402D4F93E2D04F32E8F391
:10055C004A33D8F7042F73D07BD06F914053640F7C
:10056C004AE0469FDF91CF9110820182F2E0EBE0EE
:10057C004191508100E263D06BD0DF91CF9108950F
:10058C0060911C02613011F00C94120341E0409315
:10059C000002F2E0E5E001931083F2E0EBE041931E
:1005AC0050831517040719F018F10C94FA02F2E0B5
:1005BC00E7E001931083F2E0EDE0419350831517CF
:1005CC00040719F0C8F00C940603F2E0E9E001937B
:1005DC001083F2E0EFE04193508315074FEF48B9D9
:1005EC00D9F0B0F00C940A0342E140930302089551
:1005FC0040E140930302089541E1409303020895C2
:10060C0043E140930302089543E2409303020895AB
:10061C0043E040930302089540E0409300020895A4
:10062C0041E040931C024BDF73D04134C9F3089571
:10063C0001BB1FD0169A1DD016981BD0089501BB74
:10064C00179A17D0169A15D0169813D01798089594
:10065C000F93002700BB01BB159A0BD0169A09D03B
:10066C000FB1169807FDF9CF15980FEF00BB0F913E
:10067C0008958F939F939FE08CE90197F1F79F91D9
:10068C008F910895F6DFF5DFF4DFF3DFF2DF0895E5
:10069C0040EF40930A013FEE11271430B1F1309333
:1006AC000B014FEF4A95F1F7409109014F704F3014
:1006BC0059F021E00027043039F0542F522349F02F
:1006CC000395220F0C946103330F339513950C94FF
:1006DC005303133049F0033059F0402F440F400FAF
:1006EC00410F4F5C0C948D0341E4400F0C948D032F
:1006FC00103029F0113031F043E20C948D034AE2B2
:10070C000C948D0340E30C948D0344E208950895FA
:10071C00BFDF443211F40C948E0340931B02B8DFFC
:10072C004432D9F740911B0208950C94F003C7DEB4
:10073C0027DFAEDF509104024517B9F34093040252
:10074C00443299F350E050931A024A3261F043322A
:10075C00F1F0423399F14833A1F14433A9F1463316
:10076C00B1F10C94F00360911902603039F0609390
:10077C0000025527509319022ED018956091000253
:10078C006093190266276093000225D0189561E0EA
:10079C006093000250911802503051F050E0509389
:1007AC0018025EDE5DDE51E050931A0214D01895EB
:1007BC0051E05093180249DE0ED0189546DE0BD04E
:1007CC0018954EDE08D0189524DE05D018952FDE2E
:1007DC0002D01895189501E02BDF3ADF00E22FDFED
:1007EC0037DF00E22CDF34DF00E229DF31DF00E508
:1007FC0026DF2EDF0FE423DF2BDF03E520DF28DFEE
:10080C0000E21DDF25DF00E21ADF22DF00E217DF46
:10081C001FDF04E414DF1CDF09E411DF19DF02E53C
:10082C000EDF16DF00E20BDF13DF03E508DF10DF5E
:10083C0000E505DF0DDF04E402DF0ADF00ECF8DE83
:10084C0007DFF2E0E5E0419150818827772799276F
:10085C00403041F4543630F45A3048F4503059F4A6
:10086C000C9445045456404093950C942E045A50C5
:10087C0083950C942E045A9573950C942E04905DCC
:10088C00805D705D092FDBDEE3DE082FD8DEE0DE55
:10089C0000E2D5DEDDDEF2E0E7E041915081882711
:1008AC0077279927403041F4543630F45A3048F4C5
:1008BC00503059F40C946F045456404093950C945A
:1008CC0058045A5083950C9458045A9573950C946B
:1008DC005804905D805D705D092FB1DEB9DE082F84
:1008EC00AEDEB6DE00E2ABDEB3DEF2E0E9E0419173
:1008FC005081882777279927403041F4543630F4BB
:10090C005A3048F4503059F40C94990454564040E1
:10091C0093950C9482045A5083950C9482045A95A6
:10092C0073950C948204905D805D705D092F87DE59
:10093C008FDE082F84DE8CDE00E281DE89DE00E2B1
:10094C007EDE86DE40910302407F4030C1F14032B2
:10095C0071F1409103024F70403089F04130B9F091
:10096C00423029F04330D9F048B90C94EE0405E438
:10097C0066DE6EDE00E263DE6BDE0C94EE0407E5F1
:10098C005EDE66DE00E25BDE63DE0C94EE040EE4FB
:10099C0056DE5EDE00E253DE5BDE0C94EE0403E515
:1009AC004EDE56DE00E24BDE53DE0C94EE0405E523
:1009BC0046DE4EDE00E243DE4BDE0C94EE0404E435
:1009CC003EDE46DE00E23BDE43DE0C94EE04189580
:1009DC0000E235DE3DDE00E232DE3ADE409100021E
:0A09EC00405D042F2CDE34DE189568
:00000001FF
