:020000020000FC
:0C0000000C9433000C943B020C944C0256
:10005C000C94B5000C9432001895F8944FEF47B9F6
:10006C0040E05AEFF2E0E7E041935083F2E0E5E044
:10007C004193508344275527F2E0E9E041935083A4
:10008C00F2E0E1E04193408340931202409300027E
:10009C004093130240931A0240931B02409319029F
:1000AC004093180241E050E9F2E0EBE041935083B9
:1000BC00F2E0EDE041935083442750E5F2E0EFE0AD
:1000CC004193508341E04093170240E14093030277
:1000DC004AE04093690043E04DBB0FEF0DBF01E2D6
:1000EC000EBF0FEF00BB01B9002701BB02B908E33B
:1000FC0085D294D2ADD208E381D290D2A0D208E3BB
:10010C007DD28CD208E37AD289D208E077D286D21B
:10011C0001E074D283D206E071D280D20EE06ED2AE
:10012C007DD203E572D27AD204E56FD277D201E4A4
:10013C006CD274D202E569D271D204E566D26ED269
:10014C000AE363D26BD208E260D268D20DE45DD2CE
:10015C0065D209E25AD262D2D3D278941BC0F894F9
:10016C00CFD280911602839584368F9371F441E03F
:10017C0040931702409113024395409313028F91C1
:10018C0017D044274093160203C08F918093160218
:10019C007894189544274093160240E044BD43E000
:1001AC0045BD41E040936E007894FFCF0C947901EB
:1001BC00409100024030D1F360910002F2E0E1E0A6
:1001CC0041915081560F6627461FF2E0E1E04193C2
:1001DC00508340910302407F403089F0403211F04F
:1001EC000C941A01F2E0E9E0419150816091000217
:1001FC00560FF2E0E9E0419350830C941201F2E0C7
:10020C00E9E04191508160910002561BF2E0E9E077
:10021C00419350830C941201543620F4503010F05A
:10022C000C946A010C947A01409103024F70403097
:10023C0031F0413009F1423081F0433061F1F2E0AC
:10024C00E5E04191508160910002561B4040F2E084
:10025C00E5E0419350830C945F01F2E0E5E04191BD
:10026C00508160910002560F6627461FF2E0E5E0D0
:10027C00419350830C945F01F2E0E7E0419150818F
:10028C0060910002560F6627461FF2E0E7E04193AB
:10029C0050830C945F01F2E0E7E041915081609152
:1002AC000002561B4040F2E0E7E0419350830C946F
:1002BC005F01503011F44030B9F04230A8F458B915
:1002CC00403011F0543F80F440911202453048B94F
:1002DC0029F04395409312020C94790144274093E2
:1002EC00120262D218951895F89440911A02413076
:1002FC0009F087C001E082D191D104E486D18ED17E
:10030C0009E483D18BD103E580D188D104E57DD17B
:10031C0085D101E47AD182D10EE477D17FD103E487
:10032C0074D17CD105E471D179D10AE36ED176D147
:10033C00F2E0E1E0419150818827772799274030FE
:10034C0041F4543630F45A3048F4503059F40C948B
:10035C00BC015456404093950C94A5015A5083957A
:10036C000C94A5015A9573950C94A501905D805D34
:10037C00705D092F4AD152D1082F47D14FD100ECD3
:10038C003DD14CD104E441D149D105E53ED146D112
:10039C0002E53BD143D101E438D140D104E535D15C
:1003AC003DD109E432D13AD10FE42FD137D10EE44B
:1003BC002CD134D10AE329D131D1409113028827B1
:1003CC0077279927443630F44A3040F4403051F4C2
:1003DC000C94FC01445693950C94E8014A50839577
:1003EC000C94E8014A9573950C94E801905D805D3E
:1003FC00705D092F0AD112D1082F07D10FD10C949F
:10040C0007020C94070240910302509103025F70A3
:10041C00503019F04A950C9414024D5F409303022E
:10042C00089540910302509103025F70533019F00C
:10043C0043950C942202435040930302089540913B
:10044C00030250910302507F503209F0405F4093F9
:10045C00030218954091030250910302507F5030D3
:10046C0009F04051409303021895F89440911702FB
:10047C004030E9F0409100024430C9F0439540937C
:10048C00000244274093170278941895F8944091F1
:10049C001702403061F040910002403041F04A9523
:1004AC00409300024427409317027894189578944F
:1004BC001895F89401E0A2D0B1D004E4A6D0AED047
:1004CC0009E4A3D0ABD003E5A0D0A8D002E59DD021
:1004DC00A5D004E59AD0A2D009E497D09FD00EE421
:1004EC0094D09CD001E491D099D004E58ED096D0D4
:1004FC0009E48BD093D00FE488D090D00EE485D053
:10050C008DD00AE382D08AD000EC78D087D006D088
:10051C002BD04FD00C9492020C9492029FD04F325D
:10052C00E8F34533D8F7042F70D078D040535AE015
:10053C00459F402D40534F9391D04432E9F78ED0D4
:10054C004F32E8F34A33D8F7042F5FD067D06F915E
:10055C004053640F4AE0469FF2E0EBE011920082B8
:10056C0000E253D05BD0189579D04F32E8F3453385
:10057C00D8F7042F4AD052D05AE0459F402D405313
:10058C004F936CD04432E9F769D04F32E8F34A33D9
:10059C00D8F7042F3AD042D06F914053640F4AE001
:1005AC00469FF2E0EDE01192008200E22ED036D0B0
:1005BC00189554D04F32E8F34533D8F7042F25D093
:1005CC002DD05AE0459F402D40534F9347D0443295
:1005DC00E9F744D04F32E8F34A33D8F7042F15D05B
:1005EC001DD06F914053640F4AE0469FF2E0EFE05C
:1005FC001192008200E209D011D0189501BB1FD0D6
:10060C00169A1DD016981BD0089501BB179A17D0B7
:10061C00169A15D0169813D0179808950F93002793
:10062C0000BB01BB159A0BD0169A09D00FB11698C6
:10063C0007FDF9CF15980FEF00BB0F9108958F931D
:10064C009F939FE08CE90197F1F79F918F9108950B
:10065C00F6DFF5DFF4DFF3DFF2DF089540EF4093D0
:10066C000A013FEE11271430B1F130930B014FEF1B
:10067C004A95F1F7409109014F704F3059F021E044
:10068C000027043039F0542F522349F00395220FE0
:10069C000C944703330F339513950C943903133093
:1006AC0049F0033059F0402F440F400F410F4F5C7D
:1006BC000C947C0341E4400F0C947C03103029F023
:1006CC00113031F043E20C947C034AE20C947C032D
:1006DC0040E30C947C0344E250911B02513009F02E
:1006EC00089540E040931B02462F0895642F41E08B
:1006FC0040931B020C9434030C94D9030C945F02AA
:10070C00ADDF509104024517B9F340930402443213
:10071C0099F3413499F350E050931A024A3261F044
:10072C004332F1F0423399F14833A1F14433A9F14A
:10073C004633B1F10C94D90360911902603039F051
:10074C00609300025527509319022ED01895609192
:10075C0000026093190266276093000225D0189559
:10076C0061E06093000250911802503051F050E05B
:10077C00509318026FDE6EDE51E050931A0214D0C3
:10078C00189551E0509318025ADE0ED0189557DE8A
:10079C000BD018955FDE08D0189535DE05D018956E
:1007AC0040DE02D01895189501E028DF37DF00E213
:1007BC002CDF34DF00E229DF31DF00E226DF2EDF21
:1007CC0000E523DF2BDF0FE420DF28DF03E51DDF4F
:1007DC0025DF00E21ADF22DF00E217DF1FDF00E275
:1007EC0014DF1CDF04E411DF19DF09E40EDF16DF70
:1007FC0002E50BDF13DF00E208DF10DF03E505DFA6
:10080C000DDF00E502DF0ADF04E4FFDE07DF00ECAA
:10081C00F5DE04DFF2E0E5E041915081882777278F
:10082C009927403041F4543630F45A3048F4503063
:10083C0059F40C942E045456404093950C94170480
:10084C005A5083950C9417045A9573950C9417046D
:10085C00905D805D705D092FD8DEE0DE082FD5DE5F
:10086C00DDDE00E2D2DEDADEF2E0E7E0419150813B
:10087C00882777279927403041F4543630F45A3082
:10088C0048F4503059F40C94580454564040939505
:10089C000C9441045A5083950C9441045A957395C9
:1008AC000C944104905D805D705D092FAEDEB6DE68
:1008BC00082FABDEB3DE00E2A8DEB0DEF2E0E9E04A
:1008CC0041915081882777279927403041F454363D
:1008DC0030F45A3048F4503059F40C948204545685
:1008EC00404093950C946B045A5083950C946B0474
:1008FC005A9573950C946B04905D805D705D092F17
:10090C0084DE8CDE082F81DE89DE00E27EDE86DE70
:10091C0000E27BDE83DE40910302407F4030C1F178
:10092C00403271F1409103024F70403089F04130F8
:10093C00B9F0423029F04330D9F048B90C94D704BF
:10094C0005E463DE6BDE00E260DE68DE0C94D70447
:10095C0007E55BDE63DE00E258DE60DE0C94D70454
:10096C000EE453DE5BDE00E250DE58DE0C94D7045E
:10097C0003E54BDE53DE00E248DE50DE0C94D70478
:10098C0005E543DE4BDE00E240DE48DE0C94D70486
:10099C0004E43BDE43DE00E238DE40DE0C94D70498
:1009AC00189500E232DE3ADE00E22FDE37DE4091AF
:0C09BC000002405D042F29DE31DE18959A
:00000001FF
