:020000020000FC
:0C0000000C9433000C9417020C9428029E
:10005C000C9496000C9432001895F8944FEF47B915
:10006C0040E05AEFF2E0E5E041935083F2E0E3E048
:10007C004193508344275527F2E0E7E041935083A6
:10008C00F2E0E0E14193408340930F024093000281
:10009C0040931202409318024093170241E050E93A
:1000AC00F2E0E9E041935083F2E0EBE041935083BE
:1000BC00442750E5F2E0EDE04193508341E040935A
:1000CC00160240E1409301024AE04093690043E08C
:1000DC004DBB0FEF0DBF01E20EBF0FEF00BB01B91F
:1000EC00002701BB02B908E3C0D1CFD1E8D108E3A6
:1000FC00BCD1CBD1DBD108E3B8D1C7D108E3B5D1A2
:10010C00C4D108E0B2D1C1D101E0AFD1BED106E07B
:10011C00ACD1BBD10EE0A9D1B8D119D278941BC007
:10012C00F89415D280911502839584368F9371F4CF
:10013C0041E0409316024091120243954093120203
:10014C008F9117D044274093150203C08F91809351
:10015C0015027894189544274093150240E044BD4D
:10016C0043E045BD41E040936E007894FFCF0C9482
:10017C005A01409100024030D1F360910002F2E04C
:10018C00E0E141915081560F6627461FF2E0E0E115
:10019C004193508340910102407F403089F04032BE
:1001AC0011F00C94FB00F2E0E7E04191508160917A
:1001BC000002560FF2E0E7E0419350830C94F300F9
:1001CC00F2E0E7E04191508160910002561BF2E0B1
:1001DC00E7E0419350830C94F300543620F45030F4
:1001EC0010F00C944B010C945B01409101024F7088
:1001FC00403031F0413009F1423081F0433061F14F
:10020C00F2E0E3E04191508160910002561B4040C6
:10021C00F2E0E3E0419350830C944001F2E0E3E020
:10022C004191508160910002560F6627461FF2E003
:10023C00E3E0419350830C944001F2E0E5E04191FE
:10024C00508160910002560F6627461FF2E0E5E0F0
:10025C00419350830C944001F2E0E5E041915081D0
:10026C0060910002561B4040F2E0E5E04193508360
:10027C000C944001503011F44030B9F04230A8F4E5
:10028C0058B9403011F0543F80F440910F02453082
:10029C0048B929F0439540930F020C945A01442716
:1002AC0040930F029ED118951895F89401E0DDD07B
:1002BC00ECD004E4E1D0E9D009E4DED0E6D003E5EB
:1002CC00DBD0E3D004E5D8D0E0D001E4D5D0DDD04C
:1002DC000EE4D2D0DAD003E4CFD0D7D005E4CCD022
:1002EC00D4D00AE3C9D0D1D0F2E0E0E14191508101
:1002FC00882777279927403041F4543630F45A3008
:10030C0048F4503059F40C9498015456404093954D
:10031C000C9481015A5083950C9481015A957395D4
:10032C000C948101905D805D705D092FA5D0ADD0DE
:10033C00082FA2D0AAD000EC98D0A7D004E49CD06F
:10034C00A4D005E599D0A1D002E596D09ED001E4C9
:10035C0093D09BD004E590D098D009E48DD095D063
:10036C000FE48AD092D00EE487D08FD00AE384D0E9
:10037C008CD040911202882777279927443630F485
:10038C004A3040F4403051F40C94D80144569395C3
:10039C000C94C4014A5083950C94C4014A957395EE
:1003AC000C94C401905D805D705D092F65D06DD09B
:1003BC00082F62D06AD00C94E3010C94E3014091B5
:1003CC000102509101025F70503019F04A950C9463
:1003DC00F0014D5F4093010208954091010250914C
:1003EC0001025F70533019F043950C94FE01435099
:1003FC004093010208954091010250910102507FF7
:10040C00503209F0405F409301021895409101026F
:10041C0050910102507F503009F04051409301023D
:10042C001895F894409116024030E9F04091000282
:10043C004430C9F043954093000244274093160280
:10044C0078941895F89440911602403061F04091E0
:10045C000002403041F04A954093000244274093FB
:10046C001602789418957894189501BB1FD0169A9B
:10047C001DD016981BD0089501BB179A17D0169A49
:10048C0015D0169813D0179808950F93002700BB1A
:10049C0001BB159A0BD0169A09D00FB1169807FD0F
:1004AC00F9CF15980FEF00BB0F9108958F939F9381
:1004BC009FE08CE90197F1F79F918F910895F6DFFA
:1004CC00F5DFF4DFF3DFF2DF089540EF40930A012C
:1004DC003FEE11271430B1F130930B014FEF4A95D9
:1004EC00F1F7409109014F704F3059F021E000278E
:1004FC00043039F0542F522349F00395220F0C94F9
:10050C007E02330F339513950C947002133049F01F
:10051C00033059F0402F440F400F410F4F5C0C94A7
:10052C00AA0241E4400F0C94AA02103029F01130B9
:10053C0031F043E20C94AA024AE20C94AA0240E382
:10054C000C94AA0244E2089508950C94F602BDDFBF
:10055C00509102024517C9F3409302024A3261F0EE
:10056C004332F1F0423381F1483389F1443391F154
:10057C00463399F10C94F60260911802603039F010
:10058C00609300025527509318022BD01895609158
:10059C0000026093180266276093000222D018951F
:1005AC0061E06093000250911702503039F050E036
:1005BC00509317022BDF2ADF14D0189551E050937B
:1005CC00170219DF0ED0189516DF0BD018951EDF09
:1005DC0008D01895F4DE05D01895FFDE02D01895DA
:1005EC00189501E042DF51DF00E246DF4EDF00E20A
:1005FC0043DF4BDF00E240DF48DF00E53DDF45DF56
:10060C000FE43ADF42DF03E537DF3FDF00E234DFA0
:10061C003CDF00E231DF39DF00E22EDF36DF04E4BD
:10062C002BDF33DF09E428DF30DF02E525DF2DDFA8
:10063C0000E222DF2ADF03E51FDF27DF00E51CDFF6
:10064C0024DF04E419DF21DF00EC0FDF1EDFF2E012
:10065C00E3E041915081882777279927403041F476
:10066C00543630F45A3048F4503059F40C944B034F
:10067C005456404093950C9434035A5083950C94E3
:10068C0034035A9573950C943403905D805D705DC2
:10069C00092FF2DEFADE082FEFDEF7DE00E2ECDEE9
:1006AC00F4DEF2E0E5E04191508188277727992725
:1006BC00403041F4543630F45A3048F4503059F448
:1006CC000C9475035456404093950C945E035A5009
:1006DC0083950C945E035A9573950C945E03905D10
:1006EC00805D705D092FC8DED0DE082FC5DECDDE43
:1006FC0000E2C2DECADEF2E0E7E0419150818827D9
:10070C0077279927403041F4543630F45A3048F466
:10071C00503059F40C949F035456404093950C94CC
:10072C0088035A5083950C9488035A9573950C94AE
:10073C008803905D805D705D092F9EDEA6DE082F1C
:10074C009BDEA3DE00E298DEA0DE00E295DE9DDEFD
:10075C0040910102407F4030C1F1403271F1409133
:10076C0001024F70403089F04130B9F0423029F02D
:10077C004330D9F048B90C94F40305E47DDE85DEF2
:10078C0000E27ADE82DE0C94F40307E575DE7DDE92
:10079C0000E272DE7ADE0C94F4030EE46DDE75DE9C
:1007AC0000E26ADE72DE0C94F40303E565DE6DDEB6
:1007BC0000E262DE6ADE0C94F40305E55DDE65DEC4
:1007CC0000E25ADE62DE0C94F40304E455DE5DDED6
:1007DC0000E252DE5ADE0C94F403189500E24CDE73
:1007EC0054DE00E249DE51DE40910002405D042FF0
:0607FC0043DE4BDE189500
:00000001FF
