:020000020000FC
:0C0000000C9433000C9415020C942602A2
:10005C000C9494000C9432001895F8944FEF47B917
:10006C0040E05AEFF2E0E5E041935083F2E0E3E048
:10007C004193508344275527F2E0E7E041935083A6
:10008C00F2E0E0E14193408340930F024093000281
:10009C00409312024093170241E050E9F2E0E9E08C
:1000AC0041935083F2E0EBE041935083442750E5B9
:1000BC00F2E0EDE04193508341E04093160240E1C1
:1000CC00409301024AE04093690043E04DBB0FEFBF
:1000DC000DBF01E20EBF0FEF00BB01B9002701BB42
:1000EC0002B908E3C0D1CFD1E8D108E3BCD1CBD160
:1000FC00DBD108E3B8D1C7D108E3B5D1C4D108E04E
:10010C00B2D1C1D101E0AFD1BED106E0ACD1BBD1EF
:10011C000EE0A9D1B8D117D278941BC0F89413D2A1
:10012C0080911502839584368F9371F441E040934E
:10013C001602409112024395409312028F9117D0F0
:10014C0044274093150203C08F9180931502789435
:10015C00189544274093150240E044BD43E045BD4B
:10016C0041E040936E007894FFCF0C94580140917D
:10017C0000024030D1F360910002F2E0E0E14191E5
:10018C005081560F6627461FF2E0E0E14193508301
:10019C0040910102407F403089F0403211F00C94C4
:1001AC00F900F2E0E7E04191508160910002560FB6
:1001BC00F2E0E7E0419350830C94F100F2E0E7E0C9
:1001CC004191508160910002561BF2E0E7E04193AF
:1001DC0050830C94F100543620F4503010F00C94F1
:1001EC0049010C945901409101024F70403031F09B
:1001FC00413009F1423081F0433061F1F2E0E3E04B
:10020C004191508160910002561B4040F2E0E3E0C6
:10021C00419350830C943E01F2E0E3E04191508114
:10022C0060910002560F6627461FF2E0E3E041930F
:10023C0050830C943E01F2E0E5E0419150816091D5
:10024C000002560F6627461FF2E0E5E0419350830B
:10025C000C943E01F2E0E5E0419150816091000286
:10026C00561B4040F2E0E5E0419350830C943E0174
:10027C00503011F44030B9F04230A8F458B9403045
:10028C0011F0543F80F440910F02453048B929F0E9
:10029C00439540930F020C945801442740930F024E
:1002AC0086D118951895F89401E0DDD0ECD004E4D3
:1002BC00E1D0E9D009E4DED0E6D003E5DBD0E3D031
:1002CC0004E5D8D0E0D001E4D5D0DDD00EE4D2D016
:1002DC00DAD003E4CFD0D7D005E4CCD0D4D00AE325
:1002EC00C9D0D1D0F2E0E0E1419150818827772745
:1002FC009927403041F4543630F45A3048F4503099
:10030C0059F40C9496015456404093950C947F01EB
:10031C005A5083950C947F015A9573950C947F01D8
:10032C00905D805D705D092FA5D0ADD0082FA2D057
:10033C00AAD000EC98D0A7D004E49CD0A4D005E5BA
:10034C0099D0A1D002E596D09ED001E493D09BD059
:10035C0004E590D098D009E48DD095D00FE48AD0E4
:10036C0092D00EE487D08FD00AE384D08CD0409109
:10037C001202882777279927443630F44A3040F404
:10038C00403051F40C94D601445693950C94C20110
:10039C004A5083950C94C2014A9573950C94C201F2
:1003AC00905D805D705D092F65D06DD0082F62D097
:1003BC006AD00C94E1010C94E1014091010250913E
:1003CC0001025F70503019F04A950C94EE014D5FAC
:1003DC0040930102089540910102509101025F7017
:1003EC00533019F043950C94FC0143504093010297
:1003FC0008954091010250910102507F503209F052
:10040C00405F409301021895409101025091010206
:10041C00507F503009F04051409301021895F894E8
:10042C00409116024030E9F0409100024430C9F08E
:10043C0043954093000244274093160278941895F4
:10044C00F89440911602403061F040910002403027
:10045C0041F04A9540930002442740931602789449
:10046C0018957894189501BB1FD0169A1DD0169824
:10047C001BD0089501BB179A17D0169A15D0169851
:10048C0013D0179808950F93002700BB01BB159A42
:10049C000BD0169A09D00FB1169807FDF9CF159805
:1004AC000FEF00BB0F9108958F939F939FE08CE902
:1004BC000197F1F79F918F910895F6DFF5DFF4DF47
:1004CC00F3DFF2DF089540EF40930A013FEE11276E
:1004DC001430B1F130930B014FEF4A95F1F7409185
:1004EC0009014F704F3059F021E00027043039F0EA
:1004FC00542F522349F00395220F0C947C02330F96
:10050C00339513950C946E02133049F0033059F067
:10051C00402F440F400F410F4F5C0C94A80241E454
:10052C00400F0C94A802103029F0113031F043E246
:10053C000C94A8024AE20C94A80240E30C94A80282
:10054C0044E208950895BFDF50910202451771F1FE
:10055C0040930202433251F04233E1F04833E9F068
:10056C004433F1F04633F9F00C94DC0261E0609313
:10057C00000250911702503039F050E0509317029E
:10058C0043DF42DF14D0189551E05093170231DF4E
:10059C000ED018952EDF0BD0189536DF08D0189595
:1005AC000CDF05D0189517DF02D01895189501E0CF
:1005BC005ADF69DF00E25EDF66DF00E25BDF63DFEC
:1005CC0000E258DF60DF00E555DF5DDF0FE452DF4E
:1005DC005ADF03E54FDF57DF00E24CDF54DF00E268
:1005EC0049DF51DF00E246DF4EDF04E443DF4BDF3F
:1005FC0009E440DF48DF02E53DDF45DF00E23ADF9A
:10060C0042DF03E537DF3FDF00E534DF3CDF04E4A6
:10061C0031DF39DF00EC27DF36DFF2E0E3E0419138
:10062C005081882777279927403041F4543630F48D
:10063C005A3048F4503059F40C943103545640401D
:10064C0093950C941A035A5083950C941A035A954B
:10065C0073950C941A03905D805D705D092F0ADF11
:10066C0012DF082F07DF0FDF00E204DF0CDFF2E000
:10067C00E5E041915081882777279927403041F454
:10068C00543630F45A3048F4503059F40C945B031F
:10069C005456404093950C9444035A5083950C94B3
:1006AC0044035A9573950C944403905D805D705D82
:1006BC00092FE0DEE8DE082FDDDEE5DE00E2DADE23
:1006CC00E2DEF2E0E7E04191508188277727992715
:1006DC00403041F4543630F45A3048F4503059F428
:1006EC000C9485035456404093950C946E035A50C9
:1006FC0083950C946E035A9573950C946E03905DD0
:10070C00805D705D092FB6DEBEDE082FB3DEBBDE6A
:10071C0000E2B0DEB8DE00E2ADDEB5DE40910102F3
:10072C00407F4030C1F1403271F1409101024F7075
:10073C00403089F04130B9F0423029F04330D9F0E3
:10074C0048B90C94DA0305E495DE9DDE00E292DEF6
:10075C009ADE0C94DA0307E58DDE95DE00E28ADE84
:10076C0092DE0C94DA030EE485DE8DDE00E282DE8E
:10077C008ADE0C94DA0303E57DDE85DE00E27ADEA8
:10078C0082DE0C94DA0305E575DE7DDE00E272DEB6
:10079C007ADE0C94DA0304E46DDE75DE00E26ADEC8
:1007AC0072DE0C94DA03189500E264DE6CDE00E273
:1007BC0061DE69DE40910002405D042F5BDE63DE8A
:0207CC0018957E
:00000001FF
