:020000020000FC
:0C0000000C9433000C945A020C946B0218
:10005C000C94BB000C9432001895F8944FEF47B9F0
:10006C0040E05AEFF2E0E7E041935083F2E0E5E044
:10007C004193508344275527F2E0E9E041935083A4
:10008C00F2E0E1E041934083F2E0E3E1419340830D
:10009C0040931202409300024093130240931B02C0
:1000AC0040931C0240931D0240931A024093190284
:1000BC0041E050E9F2E0EBE041935083F2E0EDE0F7
:1000CC0041935083442750E5F2E0EFE04193508395
:1000DC0041E04093180240E1409303024AE0409310
:1000EC00690043E04DBB0FEF0DBF01E20EBF0FEFF8
:1000FC0000BB01B9002701BB02B908E3BAD2C9D2CF
:10010C00E2D208E3B6D2C5D2D5D208E3B2D2C1D27C
:10011C0008E3AFD2BED208E0ACD2BBD201E0A9D288
:10012C00B8D206E0A6D2B5D20EE0A3D2B2D203E585
:10013C00A7D2AFD204E5A4D2ACD201E4A1D2A9D209
:10014C0002E59ED2A6D204E59BD2A3D20AE398D2B2
:10015C00A0D208E295D29DD20DE492D29AD209E2B5
:10016C008FD297D282D2789424C0F8944FB74F9301
:10017C00FFD280911702839584368F9399F441E0D6
:10018C0040931802F2E0E3E1919180810196F2E054
:10019C00E3E1919380831DD21BD08F914427409330
:1001AC00170203C08F91809317024F914FBF789421
:1001BC00189544274093170240E044BD43E045BDE9
:1001CC0041E040936E0078947894FECF0C948701B4
:1001DC0040910002D9F360910002F2E0E1E041911C
:1001EC005081560F6627461FF2E0E1E041935083A1
:1001FC0040910302407F403091F0403219F0403082
:10020C000C942A01F2E0E9E04191508160910002E6
:10021C00560FF2E0E9E0419350830C942201F2E096
:10022C00E9E04191508160910002561BF2E0E9E057
:10023C00419350830C942201543620F4503010F02A
:10024C000C9479010C948801409103024F7040305A
:10025C0031F0413009F1423081F0433061F1F2E08C
:10026C00E5E04191508160910002561B4040F2E064
:10027C00E5E0419350830C946F01F2E0E5E041918D
:10028C00508160910002560F6627461FF2E0E5E0B0
:10029C00419350830C946F01F2E0E7E0419150815F
:1002AC0060910002560F6627461FF2E0E7E041938B
:1002BC0050830C946F01F2E0E7E041915081609122
:1002CC000002561B4040F2E0E7E0419350830C944F
:1002DC006F01503011F44030A9F0423098F44030A6
:1002EC0011F0543F78F440911202453029F04395B7
:1002FC00409312020C9487014427409312028ED231
:10030C0008950895F89440911B02413019F040EF84
:10031C0055278FC0F89401E0ACD1BBD104E4B0D127
:10032C00B8D109E4ADD1B5D103E5AAD1B2D104E578
:10033C00A7D1AFD101E4A4D1ACD10EE4A1D1A9D104
:10034C0003E49ED1A6D105E49BD1A3D10AE398D1B5
:10035C00A0D1F2E0E1E041915081882777279927DD
:10036C00403041F4543630F45A3048F4503059F49B
:10037C000C94CD015456404093950C94B6015A50B0
:10038C0083950C94B6015A9573950C94B601905DB7
:10039C00805D705D092F74D17CD1082F71D179D11A
:1003AC0000EC67D176D104E46BD173D105E568D14B
:1003BC0070D102E565D16DD101E462D16AD104E559
:1003CC005FD167D109E45CD164D10FE459D161D11B
:1003DC000EE456D15ED10AE353D15BD1F2E0E3E1F6
:1003EC0041915081882777279927403041F4543622
:1003FC0030F45A3048F4503059F40C9412025456DC
:10040C00404093950C94FB015A5083950C94FB013E
:10041C005A9573950C94FB01905D805D705D092F6E
:10042C002FD137D1082F2CD134D10C941D020C9420
:10043C001D02539548D15F3FE1F748B955274095C8
:10044C000C941F0240910302509103025F705030D4
:10045C0019F04A950C9433024D5F409303021895A2
:10046C0040910302509103025F70533019F0439591
:10047C000C9441024350409303021895409103029F
:10048C0050910302507F503209F0405F40930302B9
:10049C0018954091030250910302507F503009F09F
:1004AC004051409303021895F89440911802403043
:1004BC00E9F0409100024430C9F0439540930002AA
:1004CC0044274093180278941895F8944091180298
:1004DC00403061F040910002403041F04A95409329
:1004EC000002442740931802789418957894189534
:1004FC0001E0BFD0CED004E4C3D0CBD009E4C0D04F
:10050C00C8D003E5BDD0C5D004E5BAD0C2D009E44B
:10051C00B7D0BFD00EE4B4D0BCD001E4B1D0B9D0C8
:10052C0004E5AED0B6D009E4ABD0B3D00FE4A8D07C
:10053C00B0D00EE4A5D0ADD00AE3A2D0AAD000EC86
:10054C0098D0A7D006D1413471F0EBE0F2E01ED088
:10055C00EDE0F2E01BD0EFE0F2E018D00BD041E080
:10056C0040931D02089541E04093000241E0409306
:10057C001D020895EED04F32E8F34433D8F7042F20
:10058C007FD087D04053409300020895EF93FF93A0
:10059C004F32E0F34533D0F7042F72D07AD040536A
:1005AC005AE0459F402D4F93D4D04F32E8F34A3355
:1005BC00D8F7042F65D06DD06F914053640F4AE08B
:1005CC00469FDF91CF911082018200E259D061D019
:1005DC00089560911D02613011F00C943803F2E023
:1005EC00E5E001911081F2E0EBE0419150811517AB
:1005FC00040719F0F8F00C942403F2E0E7E0019101
:10060C001081F2E0EDE0419150811517040719F0CB
:10061C00C8F00C942C03F2E0E9E001911081F2E0B7
:10062C00EFE041915081150719F0A0F00C943403C0
:10063C000C94900142E140930302089540E14093F1
:10064C000302089541E140930302089543E140936E
:10065C000302089543E240930302089543E040935C
:10066C000302089508950C947E0273D04134D9F39B
:10067C00089501BB1FD0169A1DD016981BD0089553
:10068C0001BB179A17D0169A15D0169813D0179835
:10069C0008950F93002700BB01BB159A0BD0169A37
:1006AC0009D00FB1169807FDF9CF15980FEF00BBC5
:1006BC000F9108958F939F939FE08CE90197F1F729
:1006CC009F918F910895F6DFF5DFF4DFF3DFF2DF12
:1006DC00089540EF40930A013FEE11271430B1F119
:1006EC0030930B014FEF4A95F1F7409109014F7090
:1006FC004F3059F021E00027043039F0542F5223A9
:10070C0049F00395220F0C948203330F3395139504
:10071C000C947403133049F0033059F0402F440FFC
:10072C00400F410F4F5C0C94AE0341E4400F0C940E
:10073C00AE03103029F0113031F043E20C94AE03CB
:10074C004AE20C94AE0340E30C94AE0344E20895E9
:10075C000895BFDF443211F40C94AF0340931C0294
:10076C00B8DF4432D9F740911C0208950C9413045D
:10077C0060911D026130D1F3ACDF5091040245173A
:10078C00A9F340930402443289F350E050931B02C6
:10079C004A3261F04332F1F0423399F14833A1F11E
:1007AC004433A9F14633B1F10C94130460911A024D
:1007BC00603039F060930002552750931A022ED006
:1007CC0018956091000260931A02662760930002EC
:1007DC0025D0189561E060930002509119025030B9
:1007EC0051F050E05093190254DE53DE51E0509317
:1007FC001B0214D0189551E0509319023FDE0ED015
:10080C0018953CDE0BD0189544DE08D018951ADEEE
:10081C0005D0189525DE02D01895189501E029DF32
:10082C0038DF00E22DDF35DF00E22ADF32DF00E2C5
:10083C0027DF2FDF00E524DF2CDF0FE421DF29DFAA
:10084C0003E51EDF26DF00E21BDF23DF00E218DFFB
:10085C0020DF00E215DF1DDF04E412DF1ADF09E4FC
:10086C000FDF17DF02E50CDF14DF00E209DF11DF19
:10087C0003E506DF0EDF00E503DF0BDF04E400DF3A
:10088C0008DF00ECF6DE05DFF2E0E5E04191508197
:10089C00882777279927403041F4543630F45A3062
:1008AC0048F4503059F40C946804545640409395D5
:1008BC000C9451045A5083950C9451045A95739589
:1008CC000C945104905D805D705D092FD9DEE1DEE2
:1008DC00082FD6DEDEDE00E2D3DEDBDEF2E0E7E080
:1008EC0041915081882777279927403041F454361D
:1008FC0030F45A3048F4503059F40C949204545655
:10090C00404093950C947B045A5083950C947B0433
:10091C005A9573950C947B04905D805D705D092FE6
:10092C00AFDEB7DE082FACDEB4DE00E2A9DEB1DE4E
:10093C00F2E0E9E0419150818827772799274030F0
:10094C0041F4543630F45A3048F4503059F40C9485
:10095C00BC045456404093950C94A5045A5083956E
:10096C000C94A5045A9573950C94A504905D805D28
:10097C00705D092F85DE8DDE082F82DE8ADE00E2B7
:10098C007FDE87DE00E27CDE84DE40910302407F66
:10099C004030B9F1403269F1409103024F70403060
:1009AC0081F04130B1F0423021F04330D1F00C9461
:1009BC00100505E465DE6DDE00E262DE6ADE0C9495
:1009CC00100507E55DDE65DE00E25ADE62DE0C94A2
:1009DC0010050EE455DE5DDE00E252DE5ADE0C94AC
:1009EC00100503E54DDE55DE00E24ADE52DE0C94C6
:1009FC00100505E545DE4DDE00E242DE4ADE0C94D4
:100A0C00100504E43DDE45DE00E23ADE42DE0C94E5
:100A1C001005089500E234DE3CDE00E231DE39DE02
:0E0A2C0040910002405D042F2BDE33DE089562
:00000001FF
