:020000020000FC
:100000000C9406000C941000010A50FF662751E082
:10001000509369005DB351605DBB78940C941F00F0
:10002000603019F060E00C941F0061E02FEF27B9F9
:1000300024E028B920E228B90C9415005098F0E08B
:10004000E8E02FEF27B9259128B900E21EE4442704
:10005000992788278017910718F401960000FACF96
:10006000443620F4439599278827F4CF2FEF259124
:1000700028B900E21EE444279927882780179107B2
:1000800018F401960000FACF443620F443959927DE
:100090008827F4CF2FEF259128B900E21EE44427EA
:1000A000992788278017910718F401960000FACF46
:1000B000443620F4439599278827F4CF2FEF2591D4
:1000C00028B900E21EE44427992788278017910762
:1000D00018F401960000FACF443620F4439599278E
:0A00E0008827F4CFF0E0E4E0AACF97
:00000001FF
