:020000020000FC
:10000000AAE06627882740EF40930A014FEF47B9DF
:1000100096E43FEE11271430D9F330930B014FEFE4
:100020004A95F1F7409109014F704F3069F021E096
:1000300000270C941B00043039F0542F522341F058
:100040000395220F0C941B00330F13950C940B0097
:10005000133049F0033059F0402F440F400F410F47
:1000600043950C94400041E4400F0C946100103023
:100070004AE291F0113040E019F043E20C94530051
:10008000941739F2942F8A9F11271116D1F4802DDD
:10009000840F88B90C940900941791F3682F88276E
:1000A000942F0C940900941759F3942F689F1127EB
:1000B000111639F408B866278827002411240C94F7
:1000C0000900B395AFEFA8B952ED67E040EF60309B
:1000D00021F0515060400000FACF403021F04150F3
:1000E00052ED67E0F4CFAA27A8B952ED67E040EFE0
:1000F000603021F0515060400000FACF403021F0D4
:10010000415052ED67E0F4CFB330D9F6BB270C94E1
:020110000000ED
:00000001FF
